:100000000C94D4000C94FC000C94FC000C94FC00A8
:100010000C94FC000C94FC000C94FC000C94FC0070
:100020000C94FC000C94FC000C94B0040C941F0580
:100030000C94FC000C94FC000C94FC000C94FC0050
:100040000C94FC000C94FC000C94FC000C94FC0040
:100050000C94FC000C94FC000C94FC000C946604C2
:100060000C94FC000C94FC000C94FC000C94FC0020
:100070000C94FC000C94FC000C94FC000C94FC0010
:100080000C94FC000C94FC000C94FC000C94FC0000
:100090000C94FC000C94FC000C94FC000C94FC00F0
:1000A0000C94FC000C94FC000C94FC00080B000267
:1000B0000202000009040000010202000005240001
:1000C0001001052401010104240206052406000193
:1000D0000705810310004009040100020A00000026
:1000E00007050202400000070583024000000403E8
:1000F000090412010002EF02014041233780000190
:100100000102030141726475696E6F204C4C43001B
:1001100041726475696E6F204D6963726F000000F3
:100120000000250028002B002E00310000000000F8
:10013000240027002A002D003000000000002300CA
:10014000260029002C002F000404040404030405E5
:100150000202020204030202020206060606060664
:10016000040402020204040408020110408040104A
:1001700020408040800802040180402010020110CD
:100180008010204040200000000200090F00000302
:100190000401000C0000000000000000000000004E
:1001A000000000000000920811241FBECFEFDAE02B
:1001B000DEBFCDBF11E0A0E0B1E0E2EAF1E102C0B4
:1001C00005900D92AE33B107D9F721E0AEE3B1E06F
:1001D00001C01D92AD3AB207E1F710E0C4EDD0E0E6
:1001E00004C02197FE010E94C908C33DD107C9F789
:1001F0000E9451070C94CF080C940000FC018091E0
:100200005C01882311F13FB7F89482E08093E90004
:100210002091F200822F90E01816190614F481E064
:1002200090E0882339F0289A44E640935B0140919E
:10023000F1004083222339F02091F200211103C004
:100240002BE62093E8003FBF08958FEF9FEF0895BE
:100250002FB7F89483E08093E9009091E800892F0C
:10026000807295FF04C09091F20080E4891B2FBF3B
:1002700008958091530181110DC082E080934F0158
:1002800084E080935001109252011092510181E05C
:10029000809353018FE491E00895282F30E0F90115
:1002A000EA57FE4F9491F901E959FE4F8491285B7A
:1002B0003E4FF9012491222309F45BC09923E9F010
:1002C00091509F30D0F4E92FF0E0E759FE4F0C94A5
:1002D000C9089401980178018C0190017D017D018C
:1002E0007D019B01A101A501A901AF017D01B30120
:1002F000909180009F7790938000E22FF0E0EE0FC6
:10030000FF1FE65CFE4FA591B491EC91E82381E0DC
:1003100090E089F580E00895909180009F7DEBCF7B
:1003200090918000977FE7CF94B59F7794BDE5CFFC
:1003300094B59F7DFBCF909190009F779093900014
:10034000DCCF909190009F7DF9CF90919000977FA6
:10035000F5CF9091C0009F779093C000CECF909141
:10036000C0009F7DF9CF9091C200977F9093C2000B
:10037000C4CF80E090E008953FB7F89480914B019E
:1003800090914C01A0914D01B0914E0126B5A89BD2
:1003900005C02F3F19F00196A11DB11D3FBFBA2F17
:1003A000A92F982F8827BC01CD01620F711D811DD7
:1003B000911D42E0660F771F881F991F4A95D1F75C
:1003C00008958F929F92AF92BF92CF92DF92EF9259
:1003D000FF924B015C010E94BC016B017C010E94F9
:1003E000BC016C197D098E099F09683E7340810527
:1003F0009105A8F321E0821A9108A108B10888EEBE
:10040000C80E83E0D81EE11CF11C81149104A104E4
:10041000B10429F7FF90EF90DF90CF90BF90AF909D
:100420009F908F90089540914001509141012091FB
:100430003E0130913F0142175307B4F49091E80018
:100440009570E1F39091E80092FD19C08093F1005E
:10045000809140019091410101968F739927892BDA
:1004600019F48EEF8093E800809140019091410152
:100470000196909341018093400181E0089580E0CE
:100480000895EF92FF920F931F93CF93DF93F82E6F
:10049000192FE62E042F81E0860F880F0E94130289
:1004A00083E00E941302CF2DD12FEC0EFD2EF11C04
:1004B000CE15DF05B9F007FF13C0FE0184910E943D
:1004C0001302182F80E00E941302812321968111CC
:1004D000EFCFDF91CF911F910F91FF90EF90089593
:1004E0008881EDCF81E0F5CFDF92EF92FF920F93FD
:1004F0001F93CF93DF93D82E8A01EB017B01E40E8B
:10050000F51ECE15DF0559F0D7FE12C0FE0184910D
:100510000E94130221968111F4CF0FEF1FEFC80143
:10052000DF91CF911F910F91FF90EF90DF90089591
:100530008881EECF0F931F93CF93DF931F92CDB798
:10054000DEB782E0898342E450E06CEA70E080E844
:100550000E9474020E943901DC0112960D911C91D7
:100560000115110589F0D801ED91FC910280F3810C
:10057000E02DBE016F5F7F4FC801099597FD04C054
:10058000F80100851185ECCF89810F90DF91CF9123
:100590001F910F910895615030F02091F100FC01FE
:1005A00020830196F8CF289A84E680935B01089512
:1005B0008F929F92AF92BF92CF92DF92EF92FF9273
:1005C0000F931F93CF93DF936C017B018A0180917E
:1005D0000B01882309F45CC080915C01882309F435
:1005E00057C08091440180FF05C08091E000826087
:1005F0008093E000E801B12C8AEFA82E93E0892EC9
:100600002AE3922E209711F4BB20D9F10E942801F1
:1006100081110AC0AA94AA20D9F161E070E080E0BB
:1006200090E00E94E101EECF8C171D0611F00CF056
:100630008C2F9FB7F8948092E9002091E80025FD67
:1006400002C09FBFDFCF282F30E0C21BD30BF701C2
:10065000815020F041914093F100FACFE20EF31E59
:10066000BB2021F09092E800B12CEBCF8091E80004
:1006700085FDE7CF9092E800BB24B394209709F35F
:10068000F3CF5D9A84E680934301101611063CF087
:1006900081E090E0F6019383828310E000E0C801DE
:1006A000DF91CF911F910F91FF90EF90DF90CF904E
:1006B000BF90AF909F908F900895CF93DF931F923C
:1006C000CDB7DEB76983DC01ED91FC910280F38147
:1006D000E02D41E050E0BE016F5F7F4F09950F9024
:1006E000DF91CF91089583E08093E9008091F2003B
:1006F000882319F08AE38093E80008950E94280176
:1007000090E00895CF93DF931F92CDB7DEB7FC0141
:100710008485958597FD08C02FEF3FEF35872487A7
:100720000F90DF91CF910895CE0101960E94FE00B7
:10073000019719F4898190E0F3CF8FEF9FEFF0CF0D
:100740000F931F93CF93DF931F92CDB7DEB78C012A
:10075000FC018485958597FF0BC0CE0101960E9410
:10076000FE00019771F4898190E0F80195878487F4
:10077000F801848595850F90DF91CF911F910F919E
:1007800008958FEF9FEFF1CFFC018485958597FD4C
:100790000BC09FB7F89482E08093E9008091F2004B
:1007A0009FBF90E0019608959FB7F89482E08093F0
:1007B000E9008091F2009FBF90E00895FC01019054
:1007C0000020E9F73197AF01481B590BBC018DE5BB
:1007D00091E00C94D8028F929F92AF92BF92CF92E9
:1007E000DF92EF92FF920F931F93CF93DF93CDB7DA
:1007F000DEB7A1970FB6F894DEBF0FBECDBF6B0179
:100800007C01F7FE41C06DE28DE591E00E945D0341
:100810008C0122273327A9012C193D094E095F09B4
:1008200019A2CE0181967C019AE0892E912CA12CEF
:10083000B12CCA01B901A50194010E94A708605D0D
:10084000F70162937F01211531054105510589F7B3
:1008500090E080E0309719F0CF010E94DE03800F16
:10086000911FA1960FB6F894DEBF0FBECDBFDF91EA
:10087000CF911F910F91FF90EF90DF90CF90BF909D
:10088000AF909F908F900895AC019B0119A28E01AB
:100890000F5D1F4F8AE0C82ED12CE12CF12CCA012C
:1008A000B901A70196010E94A708605DF801629353
:1008B0008F01211531054105510589F790E080E050
:1008C000309779F2CF010E94DE03CBCF1F920F92B7
:1008D0000FB60F9211242F933F938F939F93AF9353
:1008E000BF938091470190914801A0914901B09137
:1008F0004A013091460123E0230F2D3758F5019628
:10090000A11DB11D2093460180934701909348019A
:10091000A0934901B0934A0180914B0190914C0101
:10092000A0914D01B0914E010196A11DB11D809382
:100930004B0190934C01A0934D01B0934E01BF9198
:10094000AF919F918F913F912F910F900FBE0F907C
:100950001F90189526E8230F0296A11DB11DD2CF36
:100960001F920F920FB60F9211248F939F93809135
:10097000E1009091E100937F9093E10083FF0FC02D
:100980001092E90091E09093EB001092EC0092E35A
:100990009093ED0010925C0198E09093F00082FF3C
:1009A00022C093E09093E9009091F200992319F00E
:1009B0009AE39093E80090914301992341F090913C
:1009C0004301915090934301911101C05D98909122
:1009D0005B01992341F090915B01915090935B01F1
:1009E000911101C0289884FF18C08091E2008E7E8A
:1009F00081608093E2008091E1008F7E8093E1002E
:100A0000809144018E7E8061809344019F918F91FB
:100A10000F900FBE0F901F90189580FFF7CF809119
:100A2000E2008E7E80618093E2008091E1008E7E04
:100A30008093E100809144018E7E8160E5CF1F921A
:100A40000F920FB60F921124CF92DF92EF92FF9286
:100A50000F931F932F933F934F935F936F937F93C6
:100A60008F939F93AF93BF93EF93FF93CF93DF93B6
:100A7000CDB7DEB76C97DEBFCDBF1092E900809195
:100A8000E80083FF25C068E0CE0145960E94CB02B6
:100A900082EF8093E8008D8987FF39C09091E8004C
:100AA00090FFFCCF982F907609F034C19E894F8932
:100AB000588D2F89F88C911131C0803861F5809163
:100AC00045018093F1001092F1008EEF8093E800D1
:100AD0006C960FB6F894DEBF0FBECDBFDF91CF91FD
:100AE000FF91EF91BF91AF919F918F917F916F9106
:100AF0005F914F913F912F911F910F91FF90EF9038
:100B0000DF90CF900F900FBE0F901F9018959EEF23
:100B10009093E800C7CF1092F100D5CF913059F4EF
:100B20008111D3CF4130510581F6809145018D7FF0
:100B300080934501CACF933049F48111C6CF41302B
:100B4000510519F6809145018260F2CF953041F44C
:100B50008091E80080FFFCCF20682093E300B5CFB0
:100B6000963009F0A9C00B8D1C8D22E01092E9008F
:100B70001092410110924001F2122EC010923F01DA
:100B800010923E010E949A021F8299E09983FA8294
:100B900091E09E8390EA98879AEF9987209140018F
:100BA00030914101275F3F4F3C832B838D8310920F
:100BB000E900109241011092400110933F0100930F
:100BC0003E0149E050E0BE016F5F7F4F80E00E9430
:100BD00074020E949A0279CF10933F0100933E0164
:100BE0000E943901DC0112960D911C91011511052D
:100BF00009F451C1D801ED91FC910480F581E02DFB
:100C0000BE016B5E7F4FC8010995009709F03EC198
:100C1000F80100851185EACFF3E0FF120EC08F893D
:100C2000882309F440C0823061F440E86DE080E13F
:100C300091E00E944102811148CF81E28093EB0054
:100C400047CF813029F440E86BE084E091E0F1CFB8
:100C5000833099F70E943901DC011296ED90FC90E7
:100C60008E010F5F1F4F6801E114F10479F0D70185
:100C7000ED91FC910680F781E02DB801C70109953F
:100C8000080F111DF701E084F184EECFD8011C920A
:100C9000F60101900020E9F73197BF016C197D0939
:100CA00040E0C601C6CF6EEE70E0FB01449150E01B
:100CB00080E80E94740209CF973009F4BECF9830C3
:100CC00021F481E08093F10000CF993009F0FDCE4E
:100CD000837009F0B2CFEFE1F1E081E031E096E31B
:100CE0002191222371F08093E9003093EB00DF0122
:100CF00011972C912093EC009093ED008F5F87303B
:100D000079F78EE78093EA001092EA008F8980934A
:100D10005C01DBCE8B8D9C8D1092E900109241011D
:100D20001092400190933F0180933E01898D811183
:100D300092C08E899D89913A49F4813209F07DCF24
:100D400047E050E064E071E080E0B3CF913209F019
:100D500074CF833269F48F89988DB0E0A0E08093DE
:100D6000000190930101A0930201B0930301ADCE65
:100D7000803269F48091E80082FFFCCF67E084E074
:100D800091E00E94CB028BEF8093E8009ECE8232EE
:100D900009F09BCE8F8980930B01EEEFFFE78591E1
:100DA00094918B3F9C4D51F1E0E0F8E0809104017B
:100DB00090910501A0910601B0910701803B9440FC
:100DC000A105B105F1F480910B0180FD1AC0EE3F41
:100DD0008AE0F80789F587E797E791838083809118
:100DE00060008093420188E19BE00FB6F894A895DB
:100DF000809360000FBE9093600067CEEEEFFAE044
:100E0000D5CF808191818737974709F05ECEA8952D
:100E1000809160008861809360008091420180939E
:100E20006000EE3F2AE0F20789F08091FE0A90917F
:100E3000FF0A9183808349CE80819181873798070B
:100E400051F29093FF0A8093FE0AC5CF1092FF0AD9
:100E50001092FE0A3ACE0E943901DC0112960D91E1
:100E60001C910115110509F4E8CED801ED91FC9112
:100E70000190F081E02DBE016B5E7F4FC8010995A6
:100E8000811123CEF80100851185EBCF18161906C4
:100E90000CF41BCED2CEF1E0FF12BECE62EF70E0BA
:100EA00004CF789484B5826084BD84B5816084BDAC
:100EB00085B5826085BD85B5816085BD80916E00F8
:100EC000816080936E001092810080918100826029
:100ED0008093810080918100816080938100809166
:100EE0008000816080938000809191008260809377
:100EF0009100809191008160809391008091900099
:100F00008160809390008091C10084608093C100D3
:100F10008091C10082608093C1008091C100816096
:100F20008093C1008091C30081608093C300809151
:100F3000C00082608093C0008091C2008160809375
:100F4000C20080917A00846080937A0080917A0058
:100F5000826080937A0080917A00816080937A0029
:100F600080917A00806880937A0010925C011092E0
:100F70004501109244018091D70081608093D70091
:100F800080EA8093D80089B5806189BD89B5826087
:100F900089BD09B400FEFDCF61E070E080E090E023
:100FA0000E94E1018091D8008F7C80618093D800FD
:100FB0008091E000807F8093E0008091E1008E7E50
:100FC0008093E1008DE08093E200559A209A5D982D
:100FD00028988FEF9FEF90936A0180936901559A4B
:100FE000209A5D9A289A42E050E0FA01E959FE4FB2
:100FF0002491FA01E85BFE4F84918823C1F090E0D0
:10100000880F991FFC01E45DFE4FC591D491FC014E
:10101000E25EFE4FA591B4919FB7F8943881822F7C
:10102000809583238883EC91E22BEC939FBF4F5FE5
:101030005F4F46315105C9F624EF822E99249394CF
:10104000A12CB12CC0E0D0E085E291E00E94DE034B
:101050002FB7F89460914701709148018091490140
:1010600090914A012FBFA50194010E94A70820FD7D
:1010700057C05D9892E0C92ED12CE12CF12C8C2D1B
:101080000E944D01892B61F48CE291E00E94DE0305
:10109000C701B6010E94EB0382E391E00E94DE03E8
:1010A0008FEFC81AD80AE80AF80A86E1C816D104F0
:1010B000E104F10421F782E0C82ED12CE12CF12CBF
:1010C000C701B6010E94EB0388E391E00E94DE03B2
:1010D0008C2D0E944D01BC01990F880B990B0E9429
:1010E000EB038AE291E00E94DE038FEFC81AD80A70
:1010F000E80AF80A86E1C816D104E104F10401F710
:101100008AE391E00E94DE0364E670E080E090E014
:101110000E94E101209709F497CF0E94000094CF2C
:101120005D9AA8CFEDE5F1E01382128288EE93E09C
:10113000A0E0B0E084839583A683B78380E191E04B
:10114000918380838FEF9FEF958784870895A1E235
:101150001A2EAA1BBB1BFD010DC0AA1FBB1FEE1F31
:10116000FF1FA217B307E407F50720F0A21BB30B7C
:10117000E40BF50B661F771F881F991F1A9469F7F8
:1011800060957095809590959B01AC01BD01CF0154
:101190000895EE0FFF1F0590F491E02D0994F89447
:0211A000FFCF7F
:1011A200FFFFFFFF00E10000000000000000000060
:1011B2005D03D8027E037303C4038203A00300C14C
:1011C20080810000005343414E3A20005B50494E5B
:0E11D20020003A30215D20003A000D0A000096
:00000001FF
