:1000000096C10000B1C10000AFC10000ADC1000049
:10001000ABC10000A9C10000A7C10000A5C100003C
:10002000A3C10000A1C100000C94521A0C943A1B09
:100030000C94071A99C1000097C1000095C10000F7
:1000400093C1000091C100008FC100008DC100006C
:100050008BC100000C942E1A87C1000085C10000DE
:1000600083C1000081C100007FC100007DC100008C
:100070007BC1000079C1000077C1000075C100009C
:1000800073C1000071C100006FC100006DC10000AC
:100090006BC1000069C1000067C1000065C10000BC
:1000A00063C1000061C100005FC1000005010902D9
:1000B000A10185020901A1000509190129081500FE
:1000C0002501950875018102050109300931158165
:1000D000257F95027508810609381581257F9501D0
:1000E00075088106050C0A38021581257F95017572
:1000F000088106C0C005010980A101850319012AF4
:10010000B700150126B700950175108100C0050CD8
:100110000901A101850419012AA002150126A002E6
:10012000950175108100C005010906A1018506052C
:100130000719E029E71500250195087501810205D9
:1001400007190029EF1500250195F07501810205B9
:10015000081901290595057501910295017503910D
:1001600001C00660FF0961A1010962150026FF00B8
:100170009520750881020963150026FF00952075FA
:10018000089102C005010906A101050719E029E748
:1001900015002501950875018102950175088101F9
:1001A0000507190029FF150026FF0095067508812F
:1001B000000508190129051500250195057501910E
:1001C00002950175039101C009025B00030100A0C3
:1001D000FA090400000103010100092111010001D5
:1001E00022440007058103080001090401000203FD
:1001F00000000009211101000122220007058203ED
:100200002000010705030320000109040200010387
:1002100000000009211101000122B6000705840336
:100220002000011201000200000008EDFE4444100D
:1002300000010200011003440069006C006C0061C1
:10024000003400780000001003440069006C006C6A
:10025000006100340078000000040309041E001F40
:10026000002000210014001A0008001500040016E8
:1002700000070009001D001B000600190000000017
:10028000000000000000000000000000000000006E
:10029000000000000000000000000000000000005E
:1002A000007E0F00D4FFFFFFC700000078000000B1
:1002B00000000000002A2B280000000000000000C1
:1002C000000000000000000029000000002C1E3487
:1002D00020212224342627252E362D3738271E1F8D
:1002E000202122232425263333362E37381F0405B8
:1002F000060708090A0B0C0D0E0F10111213141526
:10030000161718191A1B1C1D2F3130232D35040503
:10031000060708090A0B0C0D0E0F10111213141505
:10032000161718191A1B1C1D2F3130354C001124BB
:100330001FBECFEFDAE0DEBFCDBF11E0A0E0B1E03D
:10034000ECE4F9E302C005900D92A439B107D9F7A6
:1003500022E0A4E9B1E001C01D92AE37B207E1F797
:100360000E9410160C943F1C4BCE809337020895C8
:1003700080933802089521E001C0220F8A95EAF7A0
:1003800080913802822BF4CF21E001C0220F8A95A0
:10039000EAF7822F8095909138028923E9CF282FA0
:1003A000892B843080F534E0939FC0011124820FA3
:1003B000911D51E081FD54E080FD550F82FD529565
:1003C00023E0969587952A95E1F7FC01EE0FFF1F34
:1003D000E80FF91FED5DFD4F20E030E070E0419146
:1003E000DF01CB01022E02C0969587950A94E2F7B1
:1003F0008695880B8427852384278E932F5F3F4F14
:100400002330310561F70895282F892F822B8430FE
:1004100060F534E0939FC0011124820F911D682F75
:10042000677023E0969587952A95E1F7FC01EE0F1A
:10043000FF1FE80FF91FED5DFD4F40E050E080E049
:10044000219130E0062E02C0369527950A94E2F7F6
:100450002170042E01C0220F0A94EAF7822B4F5F0D
:100460005F4F4330510561F7089580E00895909102
:10047000380221E030E0F90101C0EE0F8A95EAF779
:10048000D90101C0AA0F6A95EAF7EA2B01C0220F31
:100490004A95EAF7892F8E23E81303C0892F822B10
:1004A00067CF2095822F8923FBCFE0913E02909168
:1004B0003D02E91302C080E008959F0157E0E59FE7
:1004C000F0011124E15CFD4F5181561306C05081AB
:1004D000581303C05581541305C02F5F3F4FF901D6
:1004E000E770E7CF81E0089580913E0220913D02C0
:1004F000281301C0089501968770FACF90913902B0
:100500008095892380933902282F277061F48917F9
:1005100051F090913B0292FF06C086958695869594
:1005200033DF1092390208958091340290913C0299
:10053000892B909135029115C9F0892B90910E016C
:10054000913021F490913A0297FD11C096E028E98C
:1005500031E040E09150F90150812F5F3F4F511140
:100560004F5F9111F7CF41111092350208959EE12E
:1005700020EA31E0EECF8095982F809134028923D4
:10058000809334020895803E9105D1F1C8F48133FF
:10059000910509F481C048F48932910509F471C0CC
:1005A0008A32910509F47FC0089589339105E1F0FD
:1005B00082389105C9F08533910509F45DC008952D
:1005C000843E9105D1F148F4823E910531F1833E9C
:1005D000910541F181EE90E00895863E9105C1F1CB
:1005E000873E9105F1F1089520913A02237009F0B8
:1005F00064C020913B0223FF14C089E290E008957B
:1006000020913A0220FD45C030913B0230FF09C0E5
:1006100024FD24C083EE90E0089520913A0222FD4B
:10062000F7CF089520913A0222FD44C030913B0259
:1006300030FD43C024FFF5CF11C020913B0221FFC4
:10064000F0CF80913A0284FD09C087EE90E00895D2
:1006500020913A0223FFE5CF24FFF7CF80E090E01E
:10066000089520913A0223FD2BC030913B0231FFC7
:10067000E1CF84EE90E0089520913A0225FFD1CF9A
:10068000BCCF20913A0225FD1EC020913B0223FFE2
:10069000C8CF89E390E0089520913A0226FFC1CFA8
:1006A0008AE290E0089520913A0226FFBACF81E3D2
:1006B00090E0089582EE90E0089580EE90E0089535
:1006C00086EE90E0089585E390E0089590913A02D7
:1006D00092FF10C041E0282F2471243009F040E03F
:1006E00031E0282F2871283009F030E0431711F04D
:1006F0002CE0822793FF10C041E0282F2471243181
:1007000009F040E031E0282F2871283109F030E06D
:10071000431711F02CE0822730913B0230FF10C0CC
:1007200051E0282F2171213009F050E041E0282FBD
:100730002871283009F040E0541711F029E0822791
:1007400031FF10C041E0282F2171213109F040E034
:1007500031E0282F2871283109F030E0431711F0DB
:1007600029E0822794FF02C083FD877E08950F93BE
:100770001F93CF93DF9307DFEC01D23508F04DC014
:10078000D03508F0C3C0C03ED10530F5CD3CD10511
:1007900008F09AC0C83AD10578F4C53AD10508F0F6
:1007A00090C0C130D10599F1CE010497813A9105ED
:1007B00070F1C0E0D0E02BC0CE01885A91094B9770
:1007C000C0F7C85AD0E0CC0FDD1FC95DDE4F0990DD
:1007D000D881C02DD4641BC0D03490F4D03208F03E
:1007E000A8C0C83ED10598F0CE0191509F3108F7BE
:1007F0008D2F6CDF082F8C2F90E0C5DE902B54C01E
:100800008C2F90E0C0DEDF70C82FD92BD06ACE01CC
:10081000DF91CF911F910F910895C03882E5D807DD
:10082000B8F5C03682E5D80708F056C0C03482E576
:10083000D807C8F4C03282E5D80708F047C08C2F2B
:100840008695869520E2829FC0011124C37021E025
:1008500030E002C0220F331FCA95E2F7E901C82B2E
:10086000D92BDD68D4CF8C2F86958695877020E2B2
:10087000829FC0011124C37021E030E002C0220F2A
:10088000331FCA95E2F7E901C82BD92BDC68BFCF2B
:10089000C03C82E5D80750F48C2F8F71C03AD24506
:1008A00080F5982F84EF906AEC01B1CFCE01805C87
:1008B0009245809708F07DCFDC2FDF71C0EFD06AC2
:1008C000A6CFA497D064A3CFD065A1CF8C2F8F7172
:1008D000D82FC1EFD06A9BCF8C2F869586958770D5
:1008E00020E2829FC0011124C37021E030E002C0E9
:1008F000220F331FCA95E2F7E901C82BD92BDA681A
:1009000086CFE4DEC0E0D82FD06281CF8C2F8F71EC
:10091000DDDE93E0CC0FDD1F9A95E1F7DF70282F25
:1009200084FF04C090E1899F90011124C22FD069F7
:100930006ECF8D2F8F71CADE082F8C2F90E023DEB3
:10094000902BEC01E1CF80E00895F894E82FE29538
:10095000EF70F0E041A18F7021E001C0220F8A9575
:10096000EAF7922F9095942391A392A1822F892B3D
:1009700082A378940895382F25EB3203C001112407
:1009800097FF04C080589109892F089580589F4F80
:10099000FBCF80912B0280FD14C081FD14C082FD2D
:1009A00016C080912A02811581F08E3180F420E5F5
:1009B000829FC00111246EE170E00E947D1B862F92
:1009C000089584E1089588E2089588E0089580E517
:1009D000089580912B0280FD17C081FD17C082FD14
:1009E00019C080912902811599F0883298F428E085
:1009F000829FC001112468E270E00E947D1B611596
:100A0000710551F0862F089562E0FCCF64E0FACFC3
:100A100061E0F8CF68E0F6CF81E00895E091190237
:100A2000F0911A02309739F00190F081E02D309763
:100A300011F00995089580E00895A3E0B0E0E3E2A5
:100A4000F5E00C94AD1B2091D7013091D801281707
:100A50003907B1F08093D7019093D801E091190242
:100A6000F0911A02309761F00084F185E02D309703
:100A700039F023E029838A839B83CE01019609956F
:100A80002396E2E00C94C91BA3E0B0E0EAE4F5E0B1
:100A90000C94AD1B2091D5013091D6012817390750
:100AA000B1F08093D5019093D601E0911902F091B5
:100AB0001A02309761F00084F185E02D309739F00B
:100AC00024E029838A839B83CE010196099523968E
:100AD000E2E00C94C91B90910E01913099F0A8E9C5
:100AE000B1E0EFEF90E02C91821759F01196EF3FB3
:100AF00019F4211101C0E92F9F5F9630A1F7EF3F54
:100B0000C1F4089590913A0297FFE9CFE82FE69556
:100B1000E695E695803FA8F7F0E0E256FE4F877035
:100B200021E001C0220F8A95EAF78281822B82831D
:100B30000895FE2FFF0FFF0BEA56FE4FF8CF90915E
:100B40000E01913021F490913A0297FD0CC0E8E932
:100B5000F1E09191891302C0DF011E9291E0EE391C
:100B6000F907B9F70895E82FE695E695E695803FF1
:100B7000C8F7F0E0E256FE4F9DEF81FD97EF80FF52
:100B8000959582FD92958281892382830895809133
:100B90000D0108952FB7F8948091D1019091D20161
:100BA000A091D301B091D4012FBF0895F3DF9C0130
:100BB00090912E0280912F02982B21F02093E80132
:100BC0003093E9019091300280913102982B21F00D
:100BD0002093E6013093E701E0911902F0911A02A7
:100BE000309759F00680F781E02D309731F082E0A0
:100BF00080932C028CE292E009950895611509F426
:100C000040C0E82FED5CE33148F4F0E0EF5BF34ED9
:100C10000C94901BBEDE819580932F02C7CFB9DE66
:100C2000FBCFB7DE819580932E02F8CFB2DEFBCFEB
:100C3000D0DE80933002F2CFCCDE8195FACFC9DED0
:100C4000819580933102EACFC4DEFBCF815D990BA1
:100C500021E001C0220F8A95EAF780912D02822BB4
:100C600080932D02DBCF80912B02816080932B0239
:100C7000D5CF80912B028260F9CF80912B028460C6
:100C8000F5CF40912E028D3C59F480912F0287FFC1
:100C90000DC010922F02411559F410922A0208C07B
:100CA0008E3C81F480912F0218169CF3411581F03F
:100CB0008091300290913102892B09F0AFCF1092D0
:100CC0002902ACCF8F3C41F447FFF0CF10922E02A7
:100CD00080912F028115E0CF803D19F41416B4F3F2
:100CE000E5CF90913002893D29F41916FCF6109257
:100CF0003002DCCF8A3D19F497FFD8CFF8CF90911E
:100D000031028B3D29F497FFD1CF10923102CECF23
:100D10008C3D19F41916CCF3C9CF982F915D9830FA
:100D200078F4815D990B21E001C0220F8A95EAF7E2
:100D3000822F809590912D02892380932D02B6CF2A
:100D40008D3D31F480912B028E7F80932B02AECFAC
:100D50008E3D21F480912B028D7FF7CF8F3D09F0DE
:100D6000A5CF80912B028B7FF0CF2FB7F8946091A5
:100D7000D1017091D2018091D3019091D4012FBF04
:100D8000089587E797E7809300089093010888E12A
:100D90009AE00FB6F894A895809360000FBE9093E8
:100DA0006000FFCFFC018091C7019091C8018617B8
:100DB000970748F06115710529F48091E8008E7756
:100DC0008093E800CB0140E0009741F4411106C058
:100DD0008091E80082FF30C080E008952091EB010F
:100DE0002115B1F12530B1F12091E80023FD2EC08D
:100DF0002091E80022FDECCF2091E80020FFE4CF15
:100E00004091F3002091F200342F009719F0283020
:100E1000310558F041E02830310509F040E02091DB
:100E2000E8002E772093E800CFCF41914093F10066
:100E300001972F5F3F4FE9CF8091EB01811541F082
:100E4000853041F08091E80083FFC2CF81E00895B2
:100E500082E0089583E00895982F9093E900891720
:100E600071F07091EC002091ED005091F00021FDA7
:100E700009C09F5F973089F78093E9000895762F26
:100E8000242F50E03091EB003E7F3093EB00309107
:100E9000ED003D7F3093ED003091EB0031603093F9
:100EA000EB007093EC002093ED005093F000209144
:100EB000EE0027FDDECF08958091C10187FF13C0AA
:100EC0008091E80082FF06C08091E8008B778093D4
:100ED000E80008958091EB018111F2CF089580918F
:100EE000EB018115D9F38091E80080FFF8CF809164
:100EF000E8008E77ECCF2091E4003091E50095E694
:100F0000A9012091EC00822F817020FF06C0809102
:100F1000E80080FF06C080E008952091E80022FDEF
:100F20001AC08091EB01811589F0853089F080919C
:100F3000EB0085FD0FC02091E4003091E5004217E1
:100F40005307F9F29150E1F684E0089582E00895A4
:100F500083E0089581E00895CF93DF93C8EDD0E05A
:100F600088818F7E8883E7EDF0E0808181608083D7
:100F700084E082BF81E08093C00188818E7F888376
:100F8000E2EE10821092DA00A1EEB0E01C928881AD
:100F90008F77888388818068888388818F7D888324
:100FA00019BC1092EB011092BF011092DC0110925B
:100FB000BE01A0EE8C918B7F8C93888181608883A9
:100FC00042E060E080E048DFA1EEB0E08C918E7FEF
:100FD0008C93E2EEF0E08081816080838081886084
:100FE0008083E0EE80818E7F80838881806188832A
:100FF000DF91CF910895E8EDF0E080818E7F8083CE
:101000001092E2001092DA001092E100A0EEB0E03F
:101010008C9181608C9380818F77808319BCA7ED40
:101020008C918E7F8C9380818F7E80831092C00103
:1010300008950F931F93CF93DF93EB018A01909153
:10104000EB01943059F58093E9008FEF9091E8001F
:1010500095FD06C095ED9A95F1F700008150B1F726
:101060008091E80085FF1AC046DF811112C080918F
:10107000E80085FD06C08091E8008E778093E80047
:10108000F3CF88818093F1000150104011F0219638
:10109000EECF8091E8008E778093E800DF91CF91CA
:1010A0001F910F910895603229F440E250E0BC0195
:1010B00082E0BFCF0895CF93DF93EC0148E050E08A
:1010C000BC0181E0B6DF88E0FE01A9ECB1E001904F
:1010D0000D928A95E1F7DF91CF91089540E250E0BB
:1010E000BC0184E0A6CF46E050E0BC0184E0A1CF83
:1010F00043E050E0BC0184E09CCF90913B0292FB26
:10110000222720F9281771F080FB92F990933B0277
:1011100060913A0270913B0284E090E00E941E1CB4
:1011200082E0ECC908951F93CF93DF93122F962F7F
:10113000942B982B9430C0F498E0699FE00111241F
:10114000C40FD11DC40FD11D20E2829FC001112404
:10115000C80FD91F632FCE0189960E94041C612FEE
:10116000CE018A960E94041CDF91CF911F910895B1
:10117000CF92DF92EF92FF921F93CF93DF93C0E065
:101180008DE5E82E82E0F82ED0E018C021E030E0B6
:10119000C11104C0F601859195919C01412F6D2FDD
:1011A0008C2FC1DF1F5F82E0C80ED11C143071F795
:1011B000DF5F88E0E80EF11CD43019F0670110E021
:1011C000E5CFCF5FC430E1F6DF91CF911F91FF9063
:1011D000EF90DF90CF90089580910E01813061F5FE
:1011E00080913A0287FF28C09FD980939F0140E2F7
:1011F00050E069EF71E08EE991E00E94321C892B8A
:10120000D1F080E2EEE9F1E0A9EFB1E001900D92BA
:101210008A95E1F7E0911902F0911A02309759F09E
:101220000480F581E02D309731F086E080939E01B7
:101230008EE991E00995089577D98093960148E069
:1012400050E06BE172E086E991E00E94321C892B4C
:1012500091F388E0E6E9F1E0ABE1B2E001900D92B4
:101260008A95E1F7E0911902F0911A02309719F38B
:101270000280F381E02D3097F1F286E991E0DACF38
:10128000CF93C82F8115C1F08450813A70F58091B9
:101290000E01813021F480913A0287FD0FC0E8E908
:1012A000F1E08081C817E9F0319681E0EE39F80766
:1012B000C1F78C2F10DC90DFCF910895EC2FE695CD
:1012C000E695E695F0E0E256FE4F828190E04C2FE5
:1012D000477021E001C0220F4A95EAF78223892B4B
:1012E00041F38C2F2CDC78DFE4CF8C2F805E8830AC
:1012F00060F4C77081E001C0880FCA95EAF7C09119
:101300003402C82BC0933402D6CF8C2F855A833039
:1013100028F48C2F8452990B90DBCECFEC2FE85A17
:10132000EB3148F4F0E0EE0FFF1FE35AFE4F8081EF
:101330009181AADBC1CF8C2F8D5C833108F0BCCFAB
:1013400061E08C2F5BDCB8CF811541F1982F945070
:10135000913A10F4F4DB40CF982F905E983050F41F
:10136000982F81E091FD84E090FD880F92FD829599
:1013700002D9F1CF982F955A933018F480E090E07D
:101380005CCB982F985A9B3118F480E090E07CCB8E
:10139000982F9D5C933110F460E030CC08951F933A
:1013A000CF93DF93182FEB016BDF209731F4812F60
:1013B000CBDFDF91CF911F9108958FE99FE00197D7
:1013C000F1F700C000002197F0CF811531F0909126
:1013D0003402982B90933402FFCE0895811511F0BA
:1013E000CAD8FACE0895FF920F931F93CF93DF933D
:1013F000C62FD42FF22E8115A1F060933202CADBE2
:101400008093D9019093DA0181E0C1FD84E0C0FDB1
:10141000880FC2FD8295D9DFCDB7DEB7E5E00C9429
:10142000C61B8091320268132FC00091D901109120
:10143000DA01B0DB801B910B883C910528F51D2F4C
:10144000105ECD1791F0C77001E0802F01C0880FAA
:10145000CA95EAF7C3DF183040F48D2F877001C0BA
:10146000000F8A95EAF7802FB0DF60E070E08F2DE3
:1014700096DF81E0D1FD84E0D0FD880FD2FD82951A
:10148000183050F6ABDFC8CF81E0C1FD84E0C0FD6D
:10149000880FC2FD8295F6CF1092340280910E0122
:1014A000813001F580913A0287FF1CC0E0EAF1E04B
:1014B0008EE111928A95E9F780E090E0BEDA80E053
:1014C00090E0E2DA10923C0287DEECE2F2E086E0A5
:1014D00011928A95E9F710922A021092290210922D
:1014E0002B0264CBE8E9F1E086E0E3CFD5DF8FEFB4
:1014F00094E32CE0815090402040E1F700C00000D0
:1015000088E19AE00FB6F894A895809360000FBE2A
:1015100090936000FFCFAAE2B0E0E1E9FAE00C941A
:10152000AC1B81EC91E0FC0101962091F10020833D
:1015300021E0893C9207B9F78091C201893009F412
:1015400057C0C8F4823009F4B3C0833009F483C0B3
:10155000813081F18091E80083FFE7C08091C10173
:101560009091C2019A3008F0E0C0E92FF0E0EC5A07
:10157000F34E0C94901B8A3009F48AC08B3051F7DB
:101580008091C101813231F78091C5019091C601EE
:10159000892B01F78091E800877F8093E8008CDC3D
:1015A00081E09091C301911101C080E080930E0110
:1015B00073DFD0CF8091C101813A61F68091E8005C
:1015C000877F8093E8008091C5019091C601892BA7
:1015D00059F060E080E090E070E0E4DB8091E800AA
:1015E0008B778093E800B6CF68E089EC91E0F4CF88
:1015F0008091C101813209F0ADCF8091C5019091F8
:10160000C6018D7F892B09F0A5CF8091E800877FE7
:101610008093E8008091E80082FF18C02091F300D9
:101620008091F200922F029731F48091F100813085
:1016300011F0863021F48091F10080930D018091AA
:10164000E8008B778093E80037DC84CF8091EB0152
:101650008111E0CF7FCF8091C101813A09F07ACF2B
:101660008091C5019091C601892B09F073CF8091BB
:10167000E800877F8093E8008091E80080FFFCCF3E
:1016800080910E018093F1008091E8008E77DACF8F
:101690008091C101813209F05DCF8091E800877FA0
:1016A0008093E80009DC8091C40180930C0152CF43
:1016B0008091C101813A09F04DCF8091E800877F88
:1016C0008093E8008091E80080FFFCCF80910C01BE
:1016D000D9CF803889F0823841F58091C5018F706B
:1016E000873018F58093E9008091EB0085FB88270F
:1016F00080F91092E90006C08091DC01880F90917A
:10170000BE01892B9091E800977F9093E800809329
:10171000F1001092F1008091E8008E7723C08111D2
:1017200016C08091C301813009F18091E80083FFE8
:101730000AC08091E800877F8093E8008091EB00E9
:1017400080628093EB00AA96E3E00C94C81B823081
:1017500061F78091C301811579F01092E9008091C1
:10176000E800877F8093E800A7DBDFCF933009F0A4
:1017700080E08093DC01F1CF8091C5018F70282F2C
:101780002150263090F68093E9002091EB0020FF55
:10179000E4CF933031F48091EB0080628093EB00D2
:1017A000DCCF9091EB0090619093EB0021E001C0C1
:1017B000220F8A95EAF72093EA001092EA008091BE
:1017C000EB008860EBCF8111B0CF8091C3018F77A0
:1017D000182F8091E3008078812B8093E300809123
:1017E000E800877F8093E80067DB8091E80080FF56
:1017F000FCCF8091E30080688093E30083E01111C7
:1018000001C082E08093EB0190CF8058823008F0D5
:101810008CCF8091C3019091C4018C3D23E092074D
:1018200089F583E08A838AE289834FB7F894DE01E1
:10183000139620E03EE051E2E32FF0E05093570092
:10184000849120FF03C082958F703F5F8F708A3034
:10185000B8F0895C8D931D922F5F243169F74FBFDB
:101860008091E800877F8093E8006AE270E0CE0113
:10187000019698DA8091E8008B778093E80055CF45
:10188000805DE8CF292F30E02330310509F44DC0C9
:1018900078F52130310509F47CC08BE590E0E8EC67
:1018A000F1E02230310509F040CF2091E800277F98
:1018B0002093E8002091C7013091C8018217930757
:1018C00008F49C0140E02115310509F067C0411181
:1018D00065C08091E80082FDCDCF8091EB0181153C
:1018E00049F2853039F28091E80083FFF2CFC2CF10
:1018F0008091C5019091C60121323105D9F1223282
:10190000310509F012CF8330910508F00ECFFC01AC
:10191000EE0FFF1FED5EFE4F0190F081E02D805F26
:101920009E4FDC018C9190E011C0282F30E0813077
:1019300089F022303105B1F0232B09F0F6CEE9E52C
:10194000F2E0E4918E2F90E0E9E5F2E0009709F4EF
:10195000ECCEABCFE7E4F2E0E4918E2F90E0E7E449
:10196000F2E0F4CFE5E3F2E0E4918E2F90E0E5E3DE
:10197000F2E0ECCF8330910508F0D7CE880F991FA5
:10198000FC01E75EFE4F0190F081E02D89E090E0E0
:101990008CCF82E190E0E3E2F2E087CF8091EB012F
:1019A000811509F467CF853009F464CF8091E80090
:1019B00083FD60CF8091E80082FD8BCF8091E800AD
:1019C00080FF81CF4091F3008091F200942F211588
:1019D000310519F08830910550F041E0089709F081
:1019E00040E08091E8008E778093E8006CCF4491CE
:1019F0004093F1003196215031090196E8CF8038AB
:101A000009F093CE8091E800877F8093E800809171
:101A1000BF018093F1007FCE811187CE8091C301F9
:101A2000182F823008F081CE8091E800877F809364
:101A3000E8001093BF0140DA1115D9F084E08093DB
:101A4000EB0142E061EC81E007DA42E261EC84E024
:101A500003DA42E261EC82E0FFD942E260EC83E02B
:101A6000FBD98091EB01843051F482E080930F0127
:101A70005CCE8091E30087FDE1CF81E0E0CF81E0A3
:101A8000F5CFA4E0B0E0E7E4FDE00C94A61BFE0176
:101A90003196DF0184E01D928A95E9F78FE1E82E07
:101AA00081E0F82E8F01CE2EB12EF70181917F01BA
:101AB0008F3F09F43EC0F894E82FE295EF70F0E014
:101AC00021A18F7041E001C0440F8A95EAF7922F5F
:101AD000942B91A392A1842F8095892382A378943B
:101AE00000C0E3E2F1E031E0D12C21912F3F79F009
:101AF000A22FA295AF70A05EB0E08C9190E02F7005
:101B000002C0959587952A95E2F780FF3CC080E05A
:101B1000D82A330F81E0E732F80739F7F7018291CD
:101B20008F3F11F00E94A50480EA8A95F1F7F80131
:101B3000D0820F5F1F4F83E2E81681E0F80609F0BC
:101B4000B4CF44E050E06C2D7B2D83EF91E00E94F8
:101B5000321C892BD1F089819A81AB81BC81809321
:101B6000F3019093F401A093F501B093F60181E0A5
:101B70008093EE010FD88093EC019093ED012496B1
:101B8000E9E00C94C21B832FC3CF8091EE01811535
:101B9000B1F30091EC011091ED010E94CA05801B88
:101BA000910B059760F344E050E063EF71E08FEE36
:101BB00091E00E94321C892B81F08091F301909179
:101BC000F401A091F501B091F6018093EF0190939B
:101BD000F001A093F101B093F2011092EE01CFCF8A
:101BE0000F931F93CF93DF93962F942B982B9430C2
:101BF000E8F498E0699FE0011124C40FD11DC40FDF
:101C0000D11D20E2829FC0011124C80FD91FCE012F
:101C100089960E94E81B082FCE018A960E94E81B35
:101C2000902FDF91CF911F910F91089580E090E068
:101C3000F8CF462F962F972B982B943010F4672FC0
:101C4000CFCF80E090E00895CF92DF92FF920F9384
:101C50001F93CF93DF936C0100913802809137027C
:101C6000082BC3E0D0E010E0C8010C2E02C095950F
:101C700087950A94E2F780FD0CC02197A8F7F12C14
:101C80008F2DDF91CF911F910F91FF90DF90CF901B
:101C90000895FC2EB6018C2FCCDF0E94B70301976C
:101CA00061F3EECF0F931F93CF93FC012581008149
:101CB0001181C801211579F0611569F0C5DFC82FC0
:101CC000682FC8010E94CF01B8018C2FB2DFCF91DD
:101CD0001F910F9108950E940402C82FF5CFCF9352
:101CE000DF93EC01B1DFBE01A4DF0E94B703DF91F7
:101CF000CF910895FC012481211599F08081918173
:101D0000EEDF282F92959F70963099F060F4925FE5
:101D10009F70923030F4203FB1F038F481E0283EDB
:101D200038F080E008959A5FF3CF81E0243FC9F74F
:101D3000089591E0213F09F090E081E0283E08F00D
:101D400080E0892B089581E00895673523E07207CC
:101D50008105910528F4CB0187559F4F0C94E81B12
:101D600080E00895CF92DF92EF92FF92CF93DF93BE
:101D7000EC01C880D980EA80FB80B601C701E5DFAD
:101D80009FEFC91AD90AE90AF90AC882D982EA82F8
:101D9000FB82DF91CF91FF90EF90DF90CF9008957D
:101DA000A4E0B0E0E6EDFEE00C94A21B7C01FC0197
:101DB0008481811509F47BC061E0C70173DF8C0168
:101DC000F7018581811509F4D3C098013757203870
:101DD000310508F074C4003108F05AC066E573E0BC
:101DE00080E090E0B2DF811153C0A12CB12C4501FD
:101DF00001111EC089829A82AB82BC828E010F5F64
:101E00001F4FC801AFDFB02EA12E813008F440C0B3
:101E100009F068C0C801A6DF8130E9F4C801A2DF7B
:101E200060E570E0893311F060E070E0B8DAE9CF86
:101E300087E5881683E09806A104B10449F1B4014E
:101E4000C50183DF9FEF891A990AA90AB90A81118E
:101E5000EFCF0150CDCF823021F4C80183DF10DAFB
:101E6000D0CF833021F4C8017DDF6EDACACF843051
:101E700069F4C80177DFC12CD12C282F2053330BF4
:101E80002A303105C0F0C114D10411F58111B9CF48
:101E900080913902877059F0F7018581811539F0F9
:101EA00080913B0282FF03C082E00E947E02249662
:101EB000EDE00C94BE1B4AE04C9DC0014D9D900D81
:101EC0001124280F391F69018B2D9A2D4BDFD5CF97
:101ED000EFE9FFE03197F1F700C0000091E0C91A87
:101EE000D108D1CFE82FF0E0E355FD4F9491792E42
:101EF000282F26952695269530E0F901E356FD4FCB
:101F0000C4908770D12C082E02C0D594C7940A942F
:101F1000E2F7F901E357FD4FA490B12C082E02C05F
:101F2000B594A7940A94E2F723583D4FF9018490A1
:101F3000912C02C0959487948A95E2F7C0FE02C066
:101F400081EE9ED9A0FE02C086EE9AD960E070E0D4
:101F5000872D25DAA0FE02C086EEF6D9C0FE02C0AB
:101F600081EEF2D980FE4DCF60E070E08CE25ECF72
:101F7000F801E851FC47E730F10508F07BC3E25A6D
:101F8000F34E0C94901B26E241EE61EE2CDA80CFEA
:101F900027E245EE65EEFACF26E241EE60EEF6CF9F
:101FA00027E245EE64EEF2CF26E241EE62EEEECF9E
:101FB00027E245EE66EEEACF28E241E0EBCF8091E2
:101FC0003A02816080933A0260913A0270913B023A
:101FD00084E090E00E941E1C5FDA5ACF80913B02A1
:101FE000886080933B02F0CF80913A028260EACF12
:101FF00080913A028460E6CF80913A028860E2CF15
:1020000080913B028160EDCF80913B028260E9CFFD
:1020100080913A028061D6CF80913A028062D2CF1D
:1020200080913A028064CECF37DA80913A0280689C
:10203000C9CF80913A028C60C5CF80913B0283600A
:10204000D0CF80913A028E7FBDCF80913B02877FB7
:10205000C8CF80913A028D7FB5CF80913A028B7FB5
:10206000B1CF80913A02877FADCF80913B028E7FC6
:10207000B8CF80913B028D7FB4CF80913A028F7EA2
:10208000A1CF80913A028F7D9DCF80913A028F7BC4
:1020900099CF02DA80913A028F7794CF80913A02F9
:1020A000837F90CF80913B028C7F9BCF90913A02AF
:1020B000892F8B7F92FF8460877F92FF886082CF19
:1020C00080913B02982F909590FB80F990FB81F9CD
:1020D00088CF90913A02892F8F7B96FF806472CFD0
:1020E000DBD990913A02892F97FB87F980586ACF04
:1020F00061E08EE090E00E94041C66CF60E0F9CFC2
:1021000090913A02892F8F7E94FF80615BCF9091EE
:102110003A02892F8E7F90FF816054CF90913B02CD
:10212000892F877F93FF88605CCF89E2C3C289E2F1
:10213000ACC207379CE71907F1F008379CE719078D
:1021400049F19801205E32452032310548F5811170
:1021500039C00F7181E090E002C0880F991F0A9585
:10216000E2F78C01682F83E090E00E94041C802F2E
:102170000E94B5018DCE811549F081E00E94BB011E
:1021800043E062E081E00E94370282CE81E00E945B
:10219000C401F6CF811511F082E0F0CF82E0F7CFD5
:1021A0008115B9F10B359CE7190751F10C359CE706
:1021B0001907D9F00A359CE7190701F101309CE7AE
:1021C000190731F103309CE71907E1F001151C47AD
:1021D00001F562D98FEF94E32CE0815090402040CC
:1021E000E1F700C000000E94C10680913B0200247C
:1021F00082FF0394802D0E947D084ACE81E0FBCFB0
:1022000080E0F9CF6FEF7FEF80E090E00E941E1C2E
:102210006DD9F70100811181811509F445C0C8010C
:1022200013DDD82E682FC8010E94CF01B8018D2D73
:1022300000DD0E94B703182FA92EF701D580B680C4
:10224000B2948FE0B82280913902877001F1CD2CD1
:10225000D114F1F0892F807F803461F0812F805E6E
:102260008830A8F0892F807E803221F4123078F0F7
:10227000B11469F080913B0282FF09C082E00E94A4
:102280007E02809139028770CC24C3948111C12CC5
:10229000EA2DE295EF708A2D803C08F069C0F0E0ED
:1022A000EB59F34E0C94901BC8010E940402D82EE7
:1022B000BDCF0A2D0F70803110F00295007FD11430
:1022C000B9F0011569F0812F805E883010F011118E
:1022D00009C080913402802B809334020E94EC0864
:1022E000812F3EC080913C02802B80933C02F6CF30
:1022F000812F2AD80115E1F1812F805E883010F0FE
:10230000111104C0802F0E94BB0206C0009580916D
:102310003C02802380933C020E94EC0829C00A2DD5
:102320000F70807F803211F00295007F113040F0F5
:1023300009F464C0D11409F46FC0B114A9F1D0CF6D
:1023400080913B0282FD2CC0D11469F0011539F057
:1023500080913402802B809334020E94EC0880E04C
:102360000E94400905C080E00E94A4090111CACF63
:10237000C11409F4B0C08091390280FDACC0F701EE
:1023800015828695869586950E94BB01C70108DD5A
:10239000809139028695869586950E94C4019BC0DE
:1023A000D11491F0B11003C0802F0FD8E1CF8B2D45
:1023B0008130F1F690913502802F89230817C1F200
:1023C000902B90933502D4CFB110D2CF802F06D866
:1023D00090913502802F892329F0802F80958923C1
:1023E0008093350290913602802F892309F4C0CF63
:1023F000802F8095892380933602BACF8B2DD114FC
:1024000021F0863008F0B4CFCFCF853008F0B0CFC0
:10241000802F0E94EE09ACCFB114D1F3193349F4E7
:102420008FEF97EE23E0815090402040E1F700C00D
:102430000000812F0E94A4099BCF8695869583700A
:10244000813060F009F094CF812F9A2D9370D110D4
:1024500002C080E090E00E9444058ACF812F9A2D2F
:102460009370D11002C080E090E00E941D0580CFE3
:102470006D2D812F0E94FE057BCF8370D9F5D11081
:1024800028C0812F829586958770880F880F412FED
:102490004F70082E01C0440F0A94EAF7212F2071D3
:1024A00014FF06C02FE001C0220F8A95EAF720959D
:1024B0008A2D869586958370982F823099F0833087
:1024C000B1F080913702913051F0242B82230E9489
:1024D000B5010E940E0560E0C701E4DBE8CC842B67
:1024E000822BF5CF242B809137028227F0CF822FC9
:1024F000842BEDCFD11459F1A0FEEBCF812F829523
:1025000086958770880F880F412F4F70082E01C065
:10251000440F0A94EAF7212F207114FF06C02FE020
:1025200001C0220F8A95EAF720958A2D8695869517
:102530008370982F823089F08330A1F08091380227
:10254000913041F0242B82230E94B801C2CF823007
:10255000A8F6BFCF842B822BF7CF242B8091380293
:102560008227F2CF822F842BEFCF8F70082FD114C8
:1025700031F00E94BB01812F0E94E509AACF812F73
:102580000E94EE09802F0E94C401A3CF123F81F167
:1025900070F4103FC9F0113F91F0D11409F456C006
:1025A000B11409F450C0812F0E94400992CF133F0B
:1025B00029F1143F91F790913B0292FD2CC08A2D96
:1025C0008F71D11401F317C08B2DD11479F08530A0
:1025D00008F07FCF8A2D8F71282F81E001C0880FEE
:1025E0002A95EAF7909138028927AECF8630F0CF4E
:1025F0008F71D110C8CF0E94BB016BCF80E0D11486
:1026000009F4A2CF8A2D8F71982F81E001C0880F25
:102610009A95EAF799CFD11459F08F7192FFEBCFC9
:10262000982F990F990F990F936090933902E3CFE8
:1026300081E00E947E028B2D823008F44ACF82E036
:102640000E947E0246CF8A2D8F71D5CFB11479F0CA
:10265000193349F48FEF97EE23E0815090402040EA
:10266000E1F700C00000812F0E94A40932CF8A2D1B
:102670008F7189CF06319CE7190709F05ACD8091F7
:102680003302811509F453CD85E30E949F0514C0E0
:1026900006319CE7190709F04CCD809134028A7A03
:1026A00091E0811101C090E090933302811509F40B
:1026B0003CCD85E30E946B050E94EC08E9CBF80154
:1026C000E851FC47E730F10508F459CC109232028A
:1026D0009801305723323105D8F684E090E00E940B
:1026E000F01B80933A0290933B02F801E150F047CF
:1026F000E232F10508F063CCEF58F34E0C94901BD6
:1027000080917D02803170F480917C02811551F0BE
:10271000E0913E0220913D02309178024091770293
:102720002E1301C00895BF0187E0E89FF001112436
:10273000DF01A15CBD4F14968C911497811551F166
:1027400011968C911197831325C08C91841322C00C
:1027500015968C91159781111DC012968D919D91A2
:10276000A0917902B0917A028A1B9B0B883C91055B
:1027700088F480917D028F70806180937D02EB5B95
:10278000FD4F80818F708061808387E792E008DB56
:102790000C9474026F5F7F4FFB01E770C1CFADE017
:1027A000B0E0E4EDF3E1CEC78C0186E0F801DE0194
:1027B000189601900D928A95E1F7F801F5808481D1
:1027C00097E7892E92E0992E70907B02711016C0C7
:1027D000811589F0F11409F409C1C8018BDA81155A
:1027E00009F404C187E0F801A7E7B2E001900D9277
:1027F0008A95E1F785DFFF24F39454C0D080A2804E
:10280000B380C0907C022091790230917A02A501B8
:10281000421B530BC11409F4BAC0483C510508F0DF
:1028200074C0811541F3809178029180E0907D021F
:102830009E2D903108F055C0981214C080917702F7
:102840008D1110C0F11047C08E2D8F708061809364
:102850007D0287E792E0A4DA80917D02F801868309
:10286000F12C20C0F11037C040E0692D8D2D0E9461
:10287000550240E0692D8D2D0E945502F82E8111E0
:10288000EFCF888599852BDA292F22952F709034E8
:1028900068F49F70223090F09115A1F0F8019681B4
:1028A000903180F48F2D2D96EDE068C72A5F2F7050
:1028B000223060F0C80174DAFC2CF4CF911511F0CD
:1028C000811581F3805E883068F3F4CF803F50F348
:1028D000815F8330F9CF80917D02816080937D029A
:1028E000BFCF981237C0809177028D1133C0F1109D
:1028F00031C0E682C80154DA87E0F801A7E7B2E008
:1029000001900D928A95E1F776CFE0907D029E2DA1
:10291000903148F487E792E043DAF40187E01192BE
:102920008A95E9F79DCF811509F465CF90917802DA
:10293000818198130FC0809177028D110BC0F11027
:1029400009C0E682C8012CDAF40187E011928A9569
:10295000E9F751CFC801CED9811509F447C0F11468
:1029600009F444C08E2D803208F43CCF8091770268
:102970009091780289839A83AB82BC827D821E8289
:1029800080917D028F83CE0101960ADA2BCF483CDD
:10299000510508F0C2CF811509F42DCFF11431F1A2
:1029A000909178028181981318C0809177028D11DF
:1029B00014C080917D0280FD9FCF803108F49CCFB0
:1029C0008683807F803F09F495CF8681982F907F02
:1029D000905F8F70892B86838DCFC8018BD9811131
:1029E00001CF80917D02816080937D02C801D8D99A
:1029F00002CFABE1B0E0EEEFF4E1ADC64E8B5F8B02
:102A0000688F798F8A8F192F9B8F911110923C02BA
:102A10001D8A86E0FE017696DE011F9601900D92DA
:102A20008A95E1F70A8D011551F00B8B1C8B61E043
:102A3000CE010F9637D961E0CE010F9633D90B8BBB
:102A40001C8B87E0FE013F96DE01189601900D92E7
:102A50008A95E1F7CE010896A2DE81112EC0209161
:102A60003D0230913E0287E0AE01485F5F4FFA01C0
:102A700047505109DA0101900D928A95E1F78C8552
:102A80008115D9F0822F90E08395877090E0AC019A
:102A900034171506D9F097E0929FD0011124A15C5C
:102AA000BD4F9E012F5F3F4FF90101900D929A9506
:102AB000E1F740933D020E94740280913E029091A2
:102AC0003D02891310C06B96E4E061C60E944C0A77
:102AD00010923D0210923E02E7E7F2E087E0119289
:102AE0008A95E9F7EACF27E0829FC0011124815C33
:102AF0009D4F55DE811539F380913E0290913F0242
:102B00000196877080933E02D8CFA6E0B0E0EAE855
:102B1000F5E121C60E94CA058C018091F7019091D0
:102B2000F8018017910771F019821A820E94CA0574
:102B3000BC0149815A8180E090E05BDF0093F7019E
:102B40001093F8012696E4E022C685E290E040D694
:102B5000853259F486E290E03BD6823131F487E247
:102B600090E036D691E0883009F090E0892F8170AE
:102B70000895A0E1B0E0EEEBF5E1E1C5FE0131968C
:102B8000DF0180E11D928A95E9F706E310E099EAFA
:102B9000A92EB12C27E5422E23E0522E612C712C58
:102BA0009E2E8F2E6201730181E14816510461044B
:102BB00071041CF080E1C82ED12CA601B501892D2D
:102BC000982D13D6AC0CBD1C0D2C000C00084C1815
:102BD0005D08600870080150104021F76096E0E140
:102BE000CAC56FEF85E290E00FD66FEF86E290E006
:102BF0000BD66FEF87E290E007D660E088E290E0C6
:102C000003D60E94B808B5DF65E285E290E0FCD506
:102C100062E186E290E0F8D568E087E290E0F4C5F2
:102C2000CDB7DEB7A2970FB6F894DEBF0FBECDBF0B
:102C300085B7806885BF85B7806885BF84B7877F83
:102C400084BF0FB6F894A895809160008861809346
:102C50006000109260000FBE80E890E00FB6F8941C
:102C600080936100909361000FBE81E080930F011B
:102C700083EA94E080939401909395010E94FB076E
:102C80000E94AC078091E20084608093E200789417
:102C90008091EB01811599F08091E9001091EC0091
:102CA0008F7010FB112717F9182B1092E9008091F3
:102CB000E80083FD0E948B0A1F701093E90082E0F8
:102CC00084BD93E095BD9AEF97BD80936E003DDF84
:102CD000811101C086DF5FE1E52E51E0F52E03E2B0
:102CE00011E0F70181917F018F3F11F00E94A5044F
:102CF0000E151F05B1F743E2E42E41E0F42E07E282
:102D000011E0F70181917F018F3F11F00E94A5042E
:102D10000E151F05B1F7EFEEF1E084E011928A95F0
:102D2000E9F7E3EFF1E084E011928A95E9F780E0BA
:102D300090E056D5833E9E4F19F407DF811122C0E3
:102D400063EE7EEF80E090E079D560E082E090E095
:102D50005BD581E08093370261E083E090E054D559
:102D600060E074E184E090E069D53BDF60E070E012
:102D7000AB018FE090E05AD560E070E0AB0183E1F9
:102D800090E054D582E090E023D58093E10184E087
:102D900090E026D580933A0290933B020E94410D29
:102DA0008FEF96E721E0815090402040E1F700C08E
:102DB00000000E94410D8091EF0180FF07C06FEF7E
:102DC0007FEF80E090E03AD50E94C10683E090E07A
:102DD000FFD40E94B50180E091E0809319029093A6
:102DE0001A027E018FEFE81AF80A8091EB0100E1E8
:102DF00010E432E1D32E853009F4BEC00E94410DAB
:102E000022EE822E21E0922E8FEE91E089A39AA3EA
:102E100026EE31E0FC01D4019D9180812A173B0709
:102E200009F4B4C031969817B9F30DED11E0712C87
:102E3000E9A1FAA16190E9A3FAA3F40141904F013D
:102E40004614D9F14624C12CD12C55245394852DF8
:102E5000842149F1352C362091E0A92E0C2C01C09B
:102E6000AA0C0A94EAF7F801808190E08A21892B64
:102E700099F4C9827A820E94CA058B839C8381E07F
:102E80008D8391E0311001C090E09E8349815A8189
:102E90006B817C818D81ADDD311005C0A094F8017E
:102EA00080818A218083550C8FEFC81AD80A84E06C
:102EB000C816D10461F6F401629273940F5F1F4F3C
:102EC000872D843009F0B4CF0E94B50662C080918E
:102ED000EB01843019F11092DB0188E190E00FB62C
:102EE000F894A895809360000FBE1093600083B79C
:102EF000817F846083BF83B7816083BF7894889526
:102F000083B78E7F83BF0FB6F894A8958091600039
:102F1000886180936000109260000FBE0E94410D96
:102F2000EFEEF1E0ADEDB1E080E021912D9391E085
:102F3000211101C090E0892B23EF31E02E173F07CC
:102F4000A1F78115C9F08091DC018115A9F009BDB7
:102F5000D9BC09B400FEFDCF8091D8008F7D80934D
:102F6000D8008091E00082608093E0008091E000D2
:102F700081FDFCCF0E944C0A8091EB01853009F461
:102F8000A6CF0E944C0A0E940E0538CF98134DCF51
:102F9000BCDD86E0ECE2F2E0D70101900D928A956B
:102FA000E1F790902D02B0902E0210912F02A09088
:102FB00030020091310210922E0210922F021092D4
:102FC000300210923102812F8B2909F441C0C09048
:102FD000E801D090E9010E94CA058C199D099C0165
:102FE00090912A02911509F40DC22531310580F125
:102FF0009F3F19F09F5F90932A02B11459F00E94ED
:10300000C90491E01B140CF09FEF899F802D1124BF
:1030100080932E02111559F00E94C90491E01116F7
:103020000CF09FEF899F802D112480932F028091B7
:103030002E02811569F0D0902F02D11449F00E9420
:10304000BB0480932E028D2D0E94BB0480932F021F
:103050008A2D802B09F441C0C090E601D090E70191
:103060000E94CA058C199D099C0190912902911515
:1030700009F4C3C12135310580F19F3F19F09F5FED
:1030800090932902A11459F00E94E90491E01A14C6
:103090000CF09FEF899F802D112480933002011541
:1030A00059F00E94E90491E010160CF09FEF899FFF
:1030B000802D11248093310280913002811569F0B6
:1030C000D0903102D11449F00E94BB0480933002A9
:1030D0008D2D0E94BB048093310280912D028911B5
:1030E00019C080912E02811511F08B1113C020910F
:1030F0002F02211511F021130DC09091310291156D
:1031000011F0901307C030913002311103C0822BAF
:10311000892B11F00E94D60586E0F701ACE2B2E0FF
:1031200001900D928A95E1F70E940E059091EA01B7
:10313000891721F08093EA010E94B5068091EB0186
:10314000843009F052CE83E08093E9008091E8005A
:1031500082FF4BCE8091E80090E085FF05C00E9481
:103160007B07811589F091E08091E8008B7780934F
:10317000E800911509F439CEE981E150E33168F5B1
:10318000F0E0ED56F34ECCC280E2C82ED12C870180
:103190008091E80085FD0AC08091E8008B778093DC
:1031A000E8000E947B07811599F3DDCF8091F10043
:1031B000F801808381E0C81AD108A9F20F5F1F4F80
:1031C000E7CF1A828CE08B8319C08A81833079F132
:1031D00038F4813021F1823051F08FEF89830EC0B5
:1031E0008430D9F71B821C821D821E8207C088E2B0
:1031F00090E0EED21B821C821D828E83E091190228
:10320000F0911A02309709F4F0CD0284F385E02D95
:10321000309709F4EACD60E2C7010995E6CD0E9436
:10322000B50684D26B837C838D839E83E7CF8B81AD
:1032300090E0FE0134968430910504F711920196D6
:10324000FACF8A81823019F08530C1F2C6CF6B8106
:103250007C818D819E816AD288E290E0D5D2CECFEA
:103260004C816B818A810E94F00D9C0138272327B5
:1032700032272D833E83C2CF2D813E8132272327E3
:1032800032274C816B818A810E949308B7CF0E94BC
:10329000B808B4CF80E18A83B1CF83E08A8387E521
:1032A00092CF8A809B80982489249824A12CB12CC9
:1032B00067018C818701080F111DC016D10609F422
:1032C0009DCF87E5881683E09806A104B10478F4C1
:1032D000C40187559F4F7CD2F60184838FEFC81AB3
:1032E000D80A8FEF881A980AA80AB80AE6CF80E0B1
:1032F000F3CFDC808A809B80982489249824A12C99
:10330000B12C8701250132014D145104610471046F
:1033100008F074CF87E5881683E09806A104B1040D
:1033200030F4F8016481C40187559F4F6DD28FEF4F
:10333000481A580A680A780A8FEF881A980AA80A61
:10334000B80A0F5F1F4FE0CF14DC58CF84E0A3CF43
:10335000DC808A809B80982489249824A12CB12C1D
:10336000250132018E010B5F1F4F4D145104610482
:10337000710408F043CF80E888169104A104B104D9
:1033800088F4C401899624D2F80181938F018FEFCC
:10339000481A580A680A780A8FEF881A980AA80A01
:1033A000B80AE3CF80E0F0CFDC808A809B8098244D
:1033B00089249824A12CB12C8701250132014D14B8
:1033C00051046104710408F019CF80E88816910453
:1033D000A104B10428F4F8016481C401899614D2CF
:1033E0008FEF481A580A680A780A8FEF881A980AE5
:1033F000A80AB80A0F5F1F4FE2CF2B30310508F043
:103400003ECE6BCE2B30310508F0F4CD21CE1F928D
:103410001FB61F9211248F939F93AF93BF938091F8
:10342000DB01811113C08091D1019091D201A09153
:10343000D301B091D4014196A11DB11D8093D1015A
:103440009093D201A093D301B093D401BF91AF91D7
:103450009F918F911F901FBE1F90189578941F9277
:103460001FB61F9211248F939F93AF93BF938091A8
:10347000D1019091D201A091D301B091D4010196D4
:10348000A11DB11D8093D1019093D201A093D301CE
:10349000B093D401BF91AF919F918F911F901FBEA8
:1034A0001F9018951F920F920FB60F9211242F9311
:1034B0003F934F935F936F937F938F939F93AF93BC
:1034C000BF93EF93FF938091E10082FF09C0809149
:1034D000E20082FF05C08091E1008B7F8093E100D4
:1034E0008091DA0080FF24C08091D80080FF20C046
:1034F0008091DA008E7F8093DA008091D90080FF7E
:10350000A9C080E189BD82E189BD09B400FEFDCF7B
:1035100081E08093EB018091C001811109C00E947C
:10352000FB070E94AC078091E20084608093E20078
:103530008091E10080FF1AC08091E20080FF16C0F8
:103540008091E2008E7F8093E2008091E2008061B2
:103550008093E2008091D80080628093D80019BCEB
:1035600085E08093EB0183E080930F018091E1007F
:1035700084FF2FC08091E20084FF2BC080E189BDD1
:1035800082E189BD09B400FEFDCF8091D8008F7D16
:103590008093D8008091E1008F7E8093E10080913C
:1035A000E2008F7E8093E2008091E2008160809350
:1035B000E2008091BF01811509F452C084E080933C
:1035C000EB018091EB01843009F052C082E08093DE
:1035D0000F018091E10083FF2CC08091E20083FF06
:1035E00028C08091E100877F8093E10082E0809392
:1035F000EB011092BF018091E1008E7F8093E1008A
:103600008091E2008E7F8093E2008091E2008061F1
:103610008093E20042E060E080E00E942C0780910D
:10362000F00088608093F00081E080930F01809328
:103630000E01FF91EF91BF91AF919F918F917F917B
:103640006F915F914F913F912F910F900FBE0F900F
:103650001F90189519BC1092EB011092C00168CF11
:103660008091E30087FF02C083E0A9CF81E0A7CF6C
:1036700081E0ADCF1F920F920FB60F9211241F93CE
:103680002F933F934F935F936F937F938F939F936A
:10369000AF93BF93CF93DF93EF93FF93E9EEF0E007
:1036A00080811091EC008F7010FB112717F9182BF7
:1036B0001082C0EFD0E08881877F888378940E9451
:1036C0008B0AE9EEF0E010828881886088831F70A1
:1036D0001083FF91EF91DF91CF91BF91AF919F91B7
:1036E0008F917F916F915F914F913F912F911F919A
:1036F0000F900FBE0F901F90189597FB072E16F492
:10370000009406D077FD08D04FD007FC05D03EF4DA
:10371000909581959F4F0895709561957F4F08957D
:10372000EE0FFF1F0590F491E02D0994692796276D
:10373000692778278727782708952F923F924F92FD
:103740005F926F927F928F929F92AF92BF92CF9231
:10375000DF92EF92FF920F931F93CF93DF93CDB73A
:10376000DEB7CA1BDB0B0FB6F894DEBF0FBECDBFB2
:1037700009942A88398848885F846E847D848C8483
:103780009B84AA84B984C884DF80EE80FD800C818C
:103790001B81AA81B981CE0FD11D0FB6F894DEBF6F
:1037A0000FBECDBFED010895AA1BBB1B51E107C0A1
:1037B000AA1FBB1FA617B70710F0A61BB70B881FC1
:1037C000991F5A95A9F780959095BC01CD01089550
:1037D000F999FECF92BD81BDF89A992780B50895D9
:1037E000A8E1B0E042E050E02FC0DC01A40FB51F1B
:1037F0004150504040F0CB01840F951F2E9105D0D1
:1038000041505040D8F70895262FF999FECF92BD28
:1038100081BDF89A019700B4021639F01FBA20BD95
:103820000FB6F894FA9AF99A0FBE08950396272FC7
:10383000ECDFEADF252FE9DF242FE7CF0196272FE2
:10384000E4DFE2CFDC01CB01FC01F999FECF06C039
:10385000F2BDE1BDF89A319600B40D92415050404E
:10386000B8F70895FB01DC0104C08D910190801927
:1038700021F441505040C8F7881B990B0895F894E3
:10388000FFCF0A060F06110616062606260626068E
:103890002606260626062606260618061C061F06E7
:1038A0002406330639063D06690B8F0B950B8F0BEB
:1038B000950BE30B050C950BFF0C0C0DCC0FD00FEB
:1038C000C30FC80FD40FD80FDC0F591159118F1126
:1038D0008F111D123812B811B8113D12B512C6124F
:1038E000C612211087102910F40FF80F2D10FC0FAD
:1038F00031103D10081080100C10411010104510B0
:10390000691014104910701019104E105610001044
:103910003510041039101D105210601078107E10F0
:10392000EE0F25108E10E118E518211930193C19F9
:103930004719ED18ED18ED18ED18ED184A194D1945
:0C39400051197919A419A619A819D41955
:10394C00C7055B086E08730878085308000001006F
:10395C004422B684016201AC00DA01F30113023196
:10396C00333236F4F5F6F7E200E900EA00B500B6BA
:10397C0000B700CD008301CC008A01920194012193
:10398C0002230224022502260227022A02B300B4D3
:10399C00006F0070009F01CB019F02A002E200E9C2
:1039AC0000EA00B500B600B700CD008301CC008A58
:1039BC0001920194012102230224022502260227EE
:1039CC00022A02B300B4006F0070009F01CB019F6C
:0439DC0002A0020043
:00000001FF
