:100000000C94D4000C94FC000C94FC000C94FC00A8
:100010000C94FC000C94FC000C94FC000C94FC0070
:100020000C94FC000C94FC000C94BE040C942D0564
:100030000C94FC000C94FC000C94FC000C94FC0050
:100040000C94FC000C94FC000C94FC000C94FC0040
:100050000C94FC000C94FC000C94FC000C947404B4
:100060000C94FC000C94FC000C94FC000C94FC0020
:100070000C94FC000C94FC000C94FC000C94FC0010
:100080000C94FC000C94FC000C94FC000C94FC0000
:100090000C94FC000C94FC000C94FC000C94FC00F0
:1000A0000C94FC000C94FC000C94FC00080B000267
:1000B0000202000009040000010202000005240001
:1000C0001001052401010104240206052406000193
:1000D0000705810310004009040100020A00000026
:1000E00007050202400000070583024000000403E8
:1000F000090412010002EF02014041233780000190
:100100000102030141726475696E6F204C4C43001B
:1001100041726475696E6F204D6963726F000000F3
:100120000000250028002B002E00310000000000F8
:10013000240027002A002D003000000000002300CA
:10014000260029002C002F000404040404030405E5
:100150000202020204030202020206060606060664
:10016000040402020204040408020110408040104A
:1001700020408040800802040180402010020110CD
:100180008010204040200000000200090F00000302
:100190000401000C0000000000000000000000004E
:1001A000000000000000F50811241FBECFEFDAE0C8
:1001B000DEBFCDBF11E0A0E0B1E0E8E6F2E102C0B1
:1001C00005900D92A03EB107D9F722E0A0EEB1E074
:1001D00001C01D92AF34B207E1F710E0C4EDD0E0EA
:1001E00004C02197FE010E942C09C33DD107C9F725
:1001F0000E945F070C9432090C940000FC0180916E
:10020000FE01882311F13FB7F89482E08093E90062
:100210002091F200822F90E01816190614F481E064
:1002200090E0882339F0289A44E64093FD014091FC
:10023000F1004083222339F02091F200211103C004
:100240002BE62093E8003FBF08958FEF9FEF0895BE
:100250002FB7F89483E08093E9009091E800892F0C
:10026000807295FF04C09091F20080E4891B2FBF3B
:1002700008958091F50181110DC082E08093F10114
:1002800084E08093F2011092F4011092F30181E076
:100290008093F50181EF91E0089581508F3008F04F
:1002A00047C0E82FF0E0E95AFE4F0C942C09740186
:1002B000780166016C0170019801980198017B0139
:1002C0008101850189018F0198019301809180004E
:1002D0008F77809380000895809180008F7DF9CF83
:1002E00080918000877FF5CF84B58F7784BD089596
:1002F00084B58F7DFBCF809190008F7780939000A5
:100300000895809190008F7DF9CF80919000877F34
:10031000F5CF8091C0008F778093C00008958091C1
:10032000C0008F7DF9CF8091C200877F8093C2008B
:100330000895CF93DF93282F30E0F901EA57FE4F5D
:100340008491F901E959FE4FD491F901E85BFE4F20
:10035000C491CC23A1F081110E944D01EC2FF0E05B
:10036000EE0FFF1FE65CFE4FA591B491EC91ED23DB
:1003700081E090E009F480E0DF91CF91089580E082
:1003800090E0FACFCF93DF9390E0FC01E959FE4F64
:100390002491885B9E4FFC0184918823D1F090E0EA
:1003A000880F991FFC01E45DFE4FA591B491FC01FB
:1003B000E25EFE4FC591D491623071F49FB7F8941C
:1003C0003C91822F809583238C93E8812E2B288368
:1003D0009FBFDF91CF9108958FB7F894EC912E2BAA
:1003E0002C938FBFF6CF3FB7F8948091ED01909199
:1003F000EE01A091EF01B091F00126B5A89B05C0D8
:100400002F3F19F00196A11DB11D3FBFBA2FA92F93
:10041000982F8827BC01CD01620F711D811D911D90
:1004200042E0660F771F881F991F4A95D1F70895FC
:100430008F929F92AF92BF92CF92DF92EF92FF92F4
:100440004B015C010E94F3016B017C010E94F301EE
:100450006C197D098E099F09683E734081059105DD
:10046000A8F321E0821A9108A108B10888EEC80E0D
:1004700083E0D81EE11CF11C81149104A104B10495
:1004800029F7FF90EF90DF90CF90BF90AF909F90B3
:100490008F9008954091E2015091E3012091E00195
:1004A0003091E10142175307B4F49091E800957040
:1004B000E1F39091E80092FD19C08093F1008091E2
:1004C000E2019091E30101968F739927892B19F42A
:1004D0008EEF8093E8008091E2019091E301019614
:1004E0009093E3018093E20181E0089580E0089514
:1004F000EF92FF920F931F93CF93DF93F82E192F54
:10050000E62E042F81E0860F880F0E944A0283E0C6
:100510000E944A02CF2DD12FEC0EFD2EF11CCE15DC
:10052000DF05B9F007FF13C0FE0184910E944A0263
:10053000182F80E00E944A02812321968111EFCF7B
:10054000DF91CF911F910F91FF90EF9008958881D7
:10055000EDCF81E0F5CFDF92EF92FF920F931F93E3
:10056000CF93DF93D82E8A01EB017B01E40EF51EB9
:10057000CE15DF0559F0D7FE12C0FE0184910E940E
:100580004A0221968111F4CF0FEF1FEFC801DF91CE
:10059000CF911F910F91FF90EF90DF900895888188
:1005A000EECF0F931F93CF93DF931F92CDB7DEB79C
:1005B00082E0898342E450E06CEA70E080E80E94C7
:1005C000AB020E943901DC0112960D911C910115BC
:1005D000110589F0D801ED91FC910280F381E02DA5
:1005E000BE016F5F7F4FC801099597FD04C0F801F8
:1005F00000851185ECCF89810F90DF91CF911F91FC
:100600000F910895615030F02091F100FC0120839A
:100610000196F8CF289A84E68093FD0108958F9281
:100620009F92AF92BF92CF92DF92EF92FF920F9381
:100630001F93CF93DF936C017B018A0180910B01A3
:10064000882309F45CC08091FE01882309F457C017
:100650008091E60180FF05C08091E0008260809378
:10066000E000E801B12C8AEFA82E93E0892E2AE35E
:10067000922E209711F4BB20D9F10E9428018111FC
:100680000AC0AA94AA20D9F161E070E080E090E06D
:100690000E941802EECF8C171D0611F00CF08C2F63
:1006A0009FB7F8948092E9002091E80025FD02C0F0
:1006B0009FBFDFCF282F30E0C21BD30BF701815043
:1006C00020F041914093F100FACFE20EF31EBB20DF
:1006D00021F09092E800B12CEBCF8091E80085FDED
:1006E000E7CF9092E800BB24B394209709F3F3CFAF
:1006F0005D9A84E68093E501101611063CF081E0D6
:1007000090E0F6019383828310E000E0C801DF915E
:10071000CF911F910F91FF90EF90DF90CF90BF90FE
:10072000AF909F908F900895CF93DF931F92CDB796
:10073000DEB76983DC01ED91FC910280F381E02D4D
:1007400041E050E0BE016F5F7F4F09950F90DF9150
:10075000CF91089583E08093E9008091F20088238F
:1007600019F08AE38093E80008950E94280190E040
:100770000895CF93DF931F92CDB7DEB7FC01848538
:10078000958597FD08C02FEF3FEF358724870F90A1
:10079000DF91CF910895CE0101960E94FE0001974E
:1007A00019F4898190E0F3CF8FEF9FEFF0CF0F9393
:1007B0001F93CF93DF931F92CDB7DEB78C01FC015F
:1007C0008485958597FF0BC0CE0101960E94FE009F
:1007D000019771F4898190E0F80195878487F80189
:1007E000848595850F90DF91CF911F910F9108958A
:1007F0008FEF9FEFF1CFFC018485958597FD0BC0AE
:100800009FB7F89482E08093E9008091F2009FBF47
:1008100090E0019608959FB7F89482E08093E900F4
:100820008091F2009FBF90E00895FC0101900020AC
:10083000E9F73197AF01481B590BBC018FEF91E0ED
:100840000C940F038F929F92AF92BF920F931F93BE
:10085000CF93DF93CDB7DEB7A1970FB6F894DEBF85
:100860000FBECDBF19A2423008F44AE08E010F5DE1
:100870001F4F842E912CB12CA12CA50194010E9414
:100880000A09E62FB901CA01EA30F4F4E05DD801A3
:10089000EE938D01232B242B252B79F790E080E01C
:1008A000109719F0CD010E941504A1960FB6F89487
:1008B000DEBF0FBECDBFDF91CF911F910F91BF90D3
:1008C000AF909F908F900895E95CE1CFCF93DF9335
:1008D0000E941504EC0185E391E00E9415048C0F41
:1008E0009D1FDF91CF9108951F920F920FB60F9227
:1008F00011242F933F938F939F93AF93BF93809136
:10090000E9019091EA01A091EB01B091EC013091E5
:10091000E80123E0230F2D3758F50196A11DB11DE5
:100920002093E8018093E9019093EA01A093EB0101
:10093000B093EC018091ED019091EE01A091EF0157
:10094000B091F0010196A11DB11D8093ED0190932E
:10095000EE01A093EF01B093F001BF91AF919F9191
:100960008F913F912F910F900FBE0F901F90189570
:1009700026E8230F0296A11DB11DD2CF1F920F9220
:100980000FB60F9211248F939F938091E100909165
:10099000E100937F9093E10083FF0FC01092E90084
:1009A00091E09093EB001092EC0092E39093ED00B5
:1009B0001092FE0198E09093F00082FF22C093E035
:1009C0009093E9009091F200992319F09AE39093A3
:1009D000E8009091E501992341F09091E501915053
:1009E0009093E501911101C05D989091FD019923CB
:1009F00041F09091FD0191509093FD01911101C042
:100A0000289884FF18C08091E2008E7E81608093D8
:100A1000E2008091E1008F7E8093E1008091E60109
:100A20008E7E80618093E6019F918F910F900FBE23
:100A30000F901F90189580FFF7CF8091E2008E7E77
:100A400080618093E2008091E1008E7E8093E100DE
:100A50008091E6018E7E8160E5CF1F920F920FB6E6
:100A60000F921124CF92DF92EF92FF920F931F9378
:100A70002F933F934F935F936F937F938F939F93A6
:100A8000AF93BF93EF93FF93CF93DF93CDB7DEB7D1
:100A90006C97DEBFCDBF1092E9008091E80083FF24
:100AA00025C068E0CE0145960E94020382EF809344
:100AB000E8008D8987FF39C09091E80090FFFCCF56
:100AC000982F907609F034C19E894F89588D2F89CF
:100AD000F88C911131C0803861F58091E7018093E5
:100AE000F1001092F1008EEF8093E8006C960FB643
:100AF000F894DEBF0FBECDBFDF91CF91FF91EF9194
:100B0000BF91AF919F918F917F916F915F914F9125
:100B10003F912F911F910F91FF90EF90DF90CF9019
:100B20000F900FBE0F901F9018959EEF9093E800C6
:100B3000C7CF1092F100D5CF913059F48111D3CFA6
:100B40004130510581F68091E7018D7F8093E70167
:100B5000CACF933049F48111C6CF4130510519F6FF
:100B60008091E7018260F2CF953041F48091E800F6
:100B700080FFFCCF20682093E300B5CF963009F0CA
:100B8000A9C00B8D1C8D22E01092E9001092E301A8
:100B90001092E201F2122EC01092E1011092E001D7
:100BA0000E94D1021F8299E09983FA8291E09E838C
:100BB00090EA98879AEF99872091E2013091E301BA
:100BC000275F3F4F3C832B838D831092E900109267
:100BD000E3011092E2011093E1010093E00149E08A
:100BE00050E0BE016F5F7F4F80E00E94AB020E9429
:100BF000D10279CF1093E1010093E0010E94390105
:100C0000DC0112960D911C910115110509F451C1D9
:100C1000D801ED91FC910480F581E02DBE016B5E61
:100C20007F4FC8010995009709F03EC1F801008582
:100C30001185EACFF3E0FF120EC08F89882309F4F3
:100C400040C0823061F440E86DE080E191E00E94B4
:100C50007802811148CF81E28093EB0047CF813049
:100C600029F440E86BE084E091E0F1CF833099F71C
:100C70000E943901DC011296ED90FC908E010F5F0D
:100C80001F4F6801E114F10479F0D701ED91FC9157
:100C90000680F781E02DB801C7010995080F111DE5
:100CA000F701E084F184EECFD8011C92F6010190A7
:100CB0000020E9F73197BF016C197D0940E0C601BA
:100CC000C6CF6EEE70E0FB01449150E080E80E94D8
:100CD000AB0209CF973009F4BECF983021F481E000
:100CE0008093F10000CF993009F0FDCE837009F0B8
:100CF000B2CFEFE1F1E081E031E096E321912223F0
:100D000071F08093E9003093EB00DF0111972C9193
:100D10002093EC009093ED008F5F873079F78EE79A
:100D20008093EA001092EA008F898093FE01DBCE67
:100D30008B8D9C8D1092E9001092E3011092E201DC
:100D40009093E1018093E001898D811192C08E8999
:100D50009D89913A49F4813209F07DCF47E050E016
:100D600064E071E080E0B3CF913209F074CF833258
:100D700069F48F89988DB0E0A0E080930001909392
:100D80000101A0930201B0930301ADCE803269F45A
:100D90008091E80082FFFCCF67E084E091E00E9450
:100DA00002038BEF8093E8009ECE823209F09BCE47
:100DB0008F8980930B01EEEFFFE7859194918B3F34
:100DC0009C4D51F1E0E0F8E0809104019091050123
:100DD000A0910601B0910701803B9440A105B105A7
:100DE000F1F480910B0180FD1AC0EE3F8AE0F80714
:100DF00089F587E797E791838083809160008093EE
:100E0000E40188E19BE00FB6F894A8958093600018
:100E10000FBE9093600067CEEEEFFAE0D5CF8081F1
:100E200091818737974709F05ECEA8958091600041
:100E30008861809360008091E40180936000EE3FC0
:100E40002AE0F20789F08091FE0A9091FF0A9183CF
:100E5000808349CE808191818737980751F29093A2
:100E6000FF0A8093FE0AC5CF1092FF0A1092FE0A75
:100E70003ACE0E943901DC0112960D911C910115A8
:100E8000110509F4E8CED801ED91FC910190F081B3
:100E9000E02DBE016B5E7F4FC8010995811123CE05
:100EA000F80100851185EBCF181619060CF41BCE3E
:100EB000D2CEF1E0FF12BECE62EF70E004CFCF934E
:100EC000DF9300D000D000D01F92CDB7DEB778946A
:100ED00084B5826084BD84B5816084BD85B582603F
:100EE00085BD85B5816085BD80916E0081608093F0
:100EF0006E00109281008091810082608093810059
:100F00008091810081608093810080918000816068
:100F10008093800080919100826080939100809105
:100F20009100816080939100809190008160809316
:100F300090008091C10084608093C1008091C100C5
:100F400082608093C1008091C10081608093C10064
:100F50008091C30081608093C3008091C000826053
:100F60008093C0008091C20081608093C200809114
:100F70007A00846080937A0080917A008260809306
:100F80007A0080917A00816080937A0080917A0063
:100F9000806880937A001092FE011092E70110920F
:100FA000E6018091D70081608093D70080EA80932A
:100FB000D80089B5806189BD89B5826089BD09B4D1
:100FC00000FEFDCF61E070E080E090E00E9418023A
:100FD0008091D8008F7C80618093D8008091E00060
:100FE000807F8093E0008091E1008E7E8093E1001D
:100FF0008DE08093E200559A209A5D9828988FEFB3
:101000009FEF90930C0280930B0220910B01298398
:101010006AE070E080E090E00E941802898181110E
:1010200007C06AE070E080E090E00E941802EDCF17
:1010300088E391E00E94660480E691E00E946604E5
:10104000E5E2F1E0FB83EA8362E0EA81FB818191E2
:10105000FB83EA830E94C2018A819B818553914070
:1010600099F703EC10E08FE791E00E94660485E2B7
:1010700091E09B838A83C12CD12C76011982CC828A
:10108000EA81FB812190FB83EA8361E0822D0E944B
:10109000C201222D30E0F901EA57FE4F8491F90197
:1010A000E959FE4F94919D83F901E85BFE4F24912D
:1010B0002F832223A1F081110E944D018F81E82FFF
:1010C000F0E0EE0FFF1FE25EFE4FA591B4918FB7E7
:1010D000F894EC919D8190959E239C938FBFC801BD
:1010E0000197F1F7E5E2F1E0FE83ED83812C912C8D
:1010F0005401422C512C712C612CFC81F815E1F12A
:10110000ED81FE813080832D0E949901892BA1F50C
:10111000C8010197F1F7832D0E949901892B61F590
:1011200080E991E00E9415044AE0C301B2010E94E7
:10113000220485EA91E00E9415044AE0C701B60145
:101140000E9422048CEA91E00E941504632D70E055
:1011500090E080E04AE00E94220485EA91E00E944B
:1011600015044AE0C501B4010E9422048DED91E00E
:101170000E946604F1E0F9838D819E8101969E8331
:101180008D839FEF891A990AA90AB90AE0E18E16A0
:101190009104A104B10409F0B0CF62E0822D0E9455
:1011A000C201C8010197F1F7FFEFCF1ADF0AEF0A7A
:1011B000FF0A20E1C216D104E104F10409F05FCF77
:1011C0008981811104C089EB91E00E94660468EE78
:1011D00073E080E090E00E941802E0E0F0E0EF2B86
:1011E00009F441CF0E9400003ECFEFEFF1E01382FF
:1011F000128288EE93E0A0E0B0E084839583A6831A
:10120000B78380E191E0918380838FEF9FEF958793
:1012100084870895A1E21A2EAA1BBB1BFD010DC0F5
:10122000AA1FBB1FEE1FFF1FA217B307E407F50796
:1012300020F0A21BB30BE40BF50B661F771F881F72
:10124000991F1A9469F760957095809590959B0108
:10125000AC01BD01CF010895EE0FFF1F0590F49181
:08126000E02D0994F894FFCF82
:10126800FFFFFFFF00E10000000000000000000099
:1012780094030F03B503AA03FB03B903D70300C103
:10128800808100000002030405060708090A100E01
:101298000F121314150D0A000A0A3D3D3D2044495A
:1012A8004C4C4134582050494E2057414C4B4552E4
:1012B80020444941474E4F53544943203D3D3D004A
:1012C8005374617274696E672053686F7274204337
:1012D800697263756974205363616E2E2E2E002D1A
:1012E8002D2D205363616E6E696E67202D2D2D00A4
:1012F80053484F52542044455445435445443A209A
:1013080050696E200020284B6579200029203C2D4B
:101318002D2D3E2050696E20005374617475733A08
:1013280020436C65616E20284E6F2043726F737383
:1013380074616C6B2044657465637465642900008E
:00000001FF
