:100000000C94D4000C94FC000C94FC000C94FC00A8
:100010000C94FC000C94FC000C94FC000C94FC0070
:100020000C94FC000C94FC000C94E5030C94540418
:100030000C94FC000C94FC000C94FC000C94FC0050
:100040000C94FC000C94FC000C94FC000C94FC0040
:100050000C94FC000C94FC000C94FC000C949B038E
:100060000C94FC000C94FC000C94FC000C94FC0020
:100070000C94FC000C94FC000C94FC000C94FC0010
:100080000C94FC000C94FC000C94FC000C94FC0000
:100090000C94FC000C94FC000C94FC000C94FC00F0
:1000A0000C94FC000C94FC000C94FC00080B000267
:1000B0000202000009040000010202000005240001
:1000C0001001052401010104240206052406000193
:1000D0000705810310004009040100020A00000026
:1000E00007050202400000070583024000000403E8
:1000F000090412010002EF02014041233780000190
:100100000102030141726475696E6F204C4C43001B
:1001100041726475696E6F204D6963726F000000F3
:100120000000250028002B002E00310000000000F8
:10013000240027002A002D003000000000002300CA
:10014000260029002C002F000404040404030405E5
:100150000202020204030202020206060606060664
:10016000040402020204040408020110408040104A
:1001700020408040800802040180402010020110CD
:100180008010204040200000000200090F00000302
:100190000401000C0000000000000000000000004E
:1001A000000000000000800911241FBECFEFDAE03C
:1001B000DEBFCDBF11E0A0E0B1E0EEE7F3E102C0A9
:1001C00005900D92A03DB107D9F722E0A0EDB1E076
:1001D00001C01D92A738B207E1F710E0C4EDD0E0EE
:1001E00004C02197FE010E94B709C33DD107C9F79A
:1001F0000E94B9060C94BD090C940000FC0180918A
:100200003602882311F13FB7F89482E08093E90029
:100210002091F200822F90E01816190614F481E064
:1002200090E0882339F0289A44E6409335024091C3
:10023000F1004083222339F02091F200211103C004
:100240002BE62093E8003FBF08958FEF9FEF0895BE
:100250002FB7F89483E08093E9009091E800892F0C
:10026000807295FF04C09091F20080E4891B2FBF3B
:10027000089580912D0281110DC082E080932902A2
:1002800084E080932A0210922C0210922B0281E0CB
:1002900080932D0289E292E008953FB7F89480910F
:1002A000250290912602A0912702B091280226B53E
:1002B000A89B05C02F3F19F00196A11DB11D3FBF9E
:1002C000BA2FA92F982F8827BC01CD01620F711D6D
:1002D000811D911D42E0660F771F881F991F4A9567
:1002E000D1F708958F929F92AF92BF92CF92DF92F3
:1002F000EF92FF924B015C010E944D016B017C016A
:100300000E944D016C197D098E099F09683E73405A
:1003100081059105A8F321E0821A9108A108B1088E
:1003200088EEC80E83E0D81EE11CF11C81149104F4
:10033000A104B10429F7FF90EF90DF90CF90BF9018
:10034000AF909F908F9008954091D2015091D3012A
:100350002091D0013091D10142175307B4F490910C
:10036000E8009570E1F39091E80092FD19C0809348
:10037000F1008091D2019091D30101968F7399275A
:10038000892B19F48EEF8093E8008091D20190912F
:10039000D30101969093D3018093D20181E0089517
:1003A00080E00895DF92EF92FF920F931F93CF9317
:1003B000DF93D82E8A01EB017B01E40EF51ECE15EA
:1003C000DF0559F0D7FE12C0FE0184910E94A401FE
:1003D00021968111F4CF0FEF1FEFC801DF91CF916C
:1003E0001F910F91FF90EF90DF9008958881EECFDD
:1003F0000F931F93CF93DF931F92CDB7DEB782E0A9
:10040000898342E450E06CEA70E080E80E94D20107
:100410000E943901DC0112960D911C910115110504
:1004200089F0D801ED91FC910280F381E02DBE01AD
:100430006F5F7F4FC801099597FD04C0F8010085E3
:100440001185ECCF89810F90DF91CF911F910F9192
:100450000895615030F02091F100FC012083019655
:10046000F8CF289A84E68093350208958F929F9260
:10047000AF92BF92CF92DF92EF92FF920F931F93B2
:10048000CF93DF936C017B018A0180910B0188235C
:1004900009F45CC080913602882309F457C080912A
:1004A000D60180FF05C08091E00082608093E0006B
:1004B000E801B12C8AEFA82E93E0892E2AE3922E30
:1004C000209711F4BB20D9F10E94280181110AC0A4
:1004D000AA94AA20D9F161E070E080E090E00E9447
:1004E0007201EECF8C171D0611F00CF08C2F9FB708
:1004F000F8948092E9002091E80025FD02C09FBF9A
:10050000DFCF282F30E0C21BD30BF701815020F042
:1005100041914093F100FACFE20EF31EBB2021F08F
:100520009092E800B12CEBCF8091E80085FDE7CFF9
:100530009092E800BB24B394209709F3F3CF5D9A1F
:1005400084E68093D501101611063CF081E090E01E
:10055000F6019383828310E000E0C801DF91CF9120
:100560001F910F91FF90EF90DF90CF90BF90AF90D1
:100570009F908F900895CF93DF931F92CDB7DEB7F2
:100580006983DC01ED91FC910280F381E02D41E073
:1005900050E0BE016F5F7F4F09950F90DF91CF91C3
:1005A000089583E08093E9008091F200882319F098
:1005B0008AE38093E80008950E94280190E008955E
:1005C000CF93DF931F92CDB7DEB7FC01848595856D
:1005D00097FD08C02FEF3FEF358724870F90DF91FD
:1005E000CF910895CE0101960E94FE00019719F463
:1005F000898190E0F3CF8FEF9FEFF0CF0F931F93A0
:10060000CF93DF931F92CDB7DEB78C01FC018485B9
:10061000958597FF0BC0CE0101960E94FE000197C1
:1006200071F4898190E0F80195878487F8018485C9
:1006300095850F90DF91CF911F910F9108958FEFC6
:100640009FEFF1CFFC018485958597FD0BC09FB787
:10065000F89482E08093E9008091F2009FBF90E0DF
:10066000019608959FB7F89482E08093E900809105
:10067000F2009FBF90E00895FC0101900020E9F78F
:100680003197AF01481B590BBC0187E392E00C94F2
:1006900036028F929F92AF92BF920F931F93CF9388
:1006A000DF93CDB7DEB7A1970FB6F894DEBF0FBECC
:1006B000CDBF19A2423008F44AE08E010F5D1F4FF2
:1006C000842E912CB12CA12CA50194010E94950996
:1006D000E62FB901CA01EA30F4F4E05DD801EE93E7
:1006E0008D01232B242B252B79F790E080E01097A8
:1006F00019F0CD010E943C03A1960FB6F894DEBF1D
:100700000FBECDBFDF91CF911F910F91BF90AF90E2
:100710009F908F900895E95CE1CFCF93DF930E9483
:100720003C03EC0185E391E00E943C038C0F9D1F8C
:10073000DF91CF9108951F920F920FB60F9211245F
:100740002F933F938F939F93AF93BF9380912102F9
:1007500090912202A0912302B091240230912002B4
:1007600023E0230F2D3758F50196A11DB11D2093CD
:1007700020028093210290932202A0932302B0933F
:1007800024028091250290912602A0912702B09127
:1007900028020196A11DB11D809325029093260287
:1007A000A0932702B0932802BF91AF919F918F91A0
:1007B0003F912F910F900FBE0F901F90189526E834
:1007C000230F0296A11DB11DD2CF1F920F920FB61B
:1007D0000F9211248F939F938091E1009091E100FB
:1007E000937F9093E10083FF0FC01092E90091E0A6
:1007F0009093EB001092EC0092E39093ED00109236
:10080000360298E09093F00082FF22C093E090932C
:10081000E9009091F200992319F09AE39093E8008F
:100820009091D501992341F09091D50191509093E9
:10083000D501911101C05D9890913502992341F045
:1008400090913502915090933502911101C02898F2
:1008500084FF18C08091E2008E7E81608093E20068
:100860008091E1008F7E8093E1008091D6018E7EA1
:1008700080618093D6019F918F910F900FBE0F9052
:100880001F90189580FFF7CF8091E2008E7E8061E7
:100890008093E2008091E1008E7E8093E100809160
:1008A000D6018E7E8160E5CF1F920F920FB60F9218
:1008B0001124CF92DF92EF92FF920F931F932F9309
:1008C0003F934F935F936F937F938F939F93AF93D8
:1008D000BF93EF93FF93CF93DF93CDB7DEB76C97C2
:1008E000DEBFCDBF1092E9008091E80083FF25C0F4
:1008F00068E0CE0145960E94290282EF8093E800CD
:100900008D8987FF39C09091E80090FFFCCF982F28
:10091000907609F034C19E894F89588D2F89F88CC3
:10092000911131C0803861F58091D7018093F10039
:100930001092F1008EEF8093E8006C960FB6F89459
:10094000DEBF0FBECDBFDF91CF91FF91EF91BF9181
:10095000AF919F918F917F916F915F914F913F9157
:100960002F911F910F91FF90EF90DF90CF900F90FC
:100970000FBE0F901F9018959EEF9093E800C7CF81
:100980001092F100D5CF913059F48111D3CF41307D
:10099000510581F68091D7018D7F8093D701CACF11
:1009A000933049F48111C6CF4130510519F6809139
:1009B000D7018260F2CF953041F48091E80080FF4A
:1009C000FCCF20682093E300B5CF963009F0A9C092
:1009D0000B8D1C8D22E01092E9001092D301109231
:1009E000D201F2122EC01092D1011092D0010E94B9
:1009F000F8011F8299E09983FA8291E09E8390EA40
:100A000098879AEF99872091D2013091D301275F7F
:100A10003F4F3C832B838D831092E9001092D301CA
:100A20001092D2011093D1010093D00149E050E01F
:100A3000BE016F5F7F4F80E00E94D2010E94F801EB
:100A400079CF1093D1010093D0010E943901DC01CC
:100A500012960D911C910115110509F451C1D8018F
:100A6000ED91FC910480F581E02DBE016B5E7F4F1E
:100A7000C8010995009709F03EC1F801008511856C
:100A8000EACFF3E0FF120EC08F89882309F440C03B
:100A9000823061F440E86DE080E191E00E948606DA
:100AA000811148CF81E28093EB0047CF813029F458
:100AB00040E86BE084E091E0F1CF833099F70E9449
:100AC0003901DC011296ED90FC908E010F5F1F4FF3
:100AD0006801E114F10479F0D701ED91FC910680F1
:100AE000F781E02DB801C7010995080F111DF70125
:100AF000E084F184EECFD8011C92F6010190002031
:100B0000E9F73197BF016C197D0940E0C601C6CFF6
:100B10006EEE70E0FB01449150E080E80E94D2014B
:100B200009CF973009F4BECF983021F481E080934B
:100B3000F10000CF993009F0FDCE837009F0B2CFFB
:100B4000EFE1F1E081E031E096E32191222371F0C1
:100B50008093E9003093EB00DF0111972C912093F3
:100B6000EC009093ED008F5F873079F78EE78093EC
:100B7000EA001092EA008F8980933602DBCE8B8DDB
:100B80009C8D1092E9001092D3011092D2019093A3
:100B9000D1018093D001898D811192C08E899D8968
:100BA000913A49F4813209F07DCF47E050E064E0AA
:100BB00071E080E0B3CF913209F074CF833269F4F1
:100BC0008F89988DB0E0A0E080930001909301019F
:100BD000A0930201B0930301ADCE803269F48091FD
:100BE000E80082FFFCCF67E084E091E00E942902E8
:100BF0008BEF8093E8009ECE823209F09BCE8F89E6
:100C000080930B01EEEFFFE7859194918B3F9C4D14
:100C100051F1E0E0F8E08091040190910501A0918C
:100C20000601B0910701803B9440A105B105F1F4A4
:100C300080910B0180FD1AC0EE3F8AE0F80789F52C
:100C400087E797E791838083809160008093D40148
:100C500088E19BE00FB6F894A895809360000FBEE2
:100C60009093600067CEEEEFFAE0D5CF808191815E
:100C70008737974709F05ECEA8958091600088611C
:100C8000809360008091D40180936000EE3F2AE061
:100C9000F20789F08091FE0A9091FF0A9183808388
:100CA00049CE808191818737980751F29093FF0A4E
:100CB0008093FE0AC5CF1092FF0A1092FE0A3ACE28
:100CC0000E943901DC0112960D911C91011511054C
:100CD00009F4E8CED801ED91FC910190F081E02D6E
:100CE000BE016B5E7F4FC8010995811123CEF801CB
:100CF00000851185EBCF181619060CF41BCED2CE49
:100D0000F1E0FF12BECE62EF70E004CFEF92FF92EF
:100D10000F931F93CF93DF93F82E192FE62E042FF6
:100D200081E0860F880F0E94A40183E00E94A40145
:100D3000CF2DD12FEC0EFD2EF11CCE15DF05B9F015
:100D400007FF13C0FE0184910E94A401182F80E0C8
:100D50000E94A401812321968111EFCFDF91CF91D1
:100D60001F910F91FF90EF9008958881EDCF81E062
:100D7000F5CFCF93DF93CDB7DEB72B970FB6F894AF
:100D8000DEBF0FBECDBF789484B5826084BD84B5CC
:100D9000816084BD85B5826085BD85B5816085BD76
:100DA00080916E00816080936E001092810080912E
:100DB00081008260809381008091810081608093B6
:100DC00081008091800081608093800080919100FB
:100DD0008260809391008091910081608093910066
:100DE000809190008160809390008091C100846028
:100DF0008093C1008091C10082608093C100809186
:100E0000C10081608093C1008091C30081608093A4
:100E1000C3008091C00082608093C0008091C200B6
:100E200081608093C20080917A00846080937A0010
:100E300080917A00826080937A0080917A0081604C
:100E400080937A0080917A00806880937A00109273
:100E500036021092D7011092D6018091D70081609E
:100E60008093D70080EA8093D80089B5806189BDDE
:100E700089B5826089BD09B400FEFDCF61E070E0F4
:100E800080E090E00E9472018091D8008F7C8061A8
:100E90008093D8008091E000807F8093E000809173
:100EA000E1008E7E8093E1008DE08093E200559A10
:100EB000209A5D98289825E331E0A5E2B1E08D9174
:100EC00090E0FC01E959FE4F4491885B9E4FFC0184
:100ED00084918823E9F090E0880F991FFC01E45D7C
:100EE000FE4F659174917A836983FC01E25EFE4F47
:100EF000659174919FB7F894E981FA815081842FAC
:100F0000809585238083FB018081482B40839FBF90
:100F10002A173B07A1F68FEF9FEF9093440280932F
:100F20004302F0910B01F9836AE070E080E090E009
:100F30000E9472012981211107C06AE070E080E0FF
:100F400090E00E947201EDCF8AE591E00E948D034E
:100F50008AE791E00E943C034AE06EE170E080E0A5
:100F600090E00E94490385E391E00E943C0385E301
:100F700091E00E943C0322242394312C8FB7F894F3
:100F8000409021025090220260902302709024022F
:100F90008FBFA5E2B1E030E020E01F821E82522F19
:100FA0008D9190E0FC01EA57FE4F6491FC01E959F4
:100FB000FE4F4491885B9E4FFC018491811136C1A4
:100FC000C10102C0880F991F5A95E2F74E815F81D7
:100FD000482B592B5F834E832F5F3F4F20313105C4
:100FE000F1F60EED11E085E2882E81E0982EC12CFD
:100FF000D12C76011982CB822E813F810C2C02C02C
:10100000369527950A94E2F73D832C8320911E02A2
:1010100030911F026C816170C9010C2C02C0969541
:1010200087950A94E2F78170681709F43FC0D801E8
:101030004D915D916D917C91D301C201841B950B03
:10104000A60BB70B4F97A105B10580F1D8014D92C2
:101050005D926D927C921397C1010C2C02C0880F97
:10106000991F0A94E2F7AC80BD80B1E0AB22BB24AB
:10107000EC81E0FF35C1822B932B90931F0280936C
:101080001E0288E891E00E943C034AE0C701B601D5
:101090000E9449038CEA91E00E943C0388E391E0BE
:1010A000AB2811F480E491E00E948D0320911E0290
:1010B00030911F023D832C830B8002C0369527950B
:1010C0000A94E2F7A090DC01B090DD01422F41705C
:1010D000C5010B8002C0969587950A94E2F781704E
:1010E0004817E1F1A901417055275A83498388E9DE
:1010F00091E00E943C034AE0C701B6010E94490307
:1011000084EA91E00E943C03D4016C9170E090E08D
:1011100080E04AE00E9449038BEA91E00E943C0390
:10112000E981FA8189E491E0EF2B11F481E591E006
:101130000E948D03C1010B8002C0880F991F0A9481
:10114000E2F729813A81232B09F4CFC0A82AB92AD2
:10115000B092DD01A092DC0131E039835FEFC51A66
:10116000D50AE50AF50A6FEF861A960A0C5F1F4F3B
:1011700070E1C716D104E104F10409F03CCF898184
:10118000811146C08091D8019091D901A091DA01D6
:10119000B091DB01A3019201281B390B4A0B5B0BB9
:1011A000DA01C901893E9340A105B10588F1409259
:1011B000D8015092D9016092DA017092DB0181EB83
:1011C00091E00E943C034E815F81BA0190E080E093
:1011D00040E10E94490389EB91E00E943C03AC810D
:1011E000BD81BD0190E080E040E10E94490385ECB3
:1011F00091E00E943C036091DC017091DD0190E080
:1012000080E040E10E94490385E391E00E943C03B5
:101210006AE070E080E090E00E947201E0E0F0E0BF
:10122000EF2B09F4ABCE0E940000A8CE6623E9F0B4
:1012300061506F30D0F4E62FF0E0EF5DF64F0C9484
:10124000B7094B094F0930094309470935093509E1
:101250003509520958095C096009660935096A09A6
:10126000909180009F7790938000E82FF0E0EE0F40
:10127000FF1FE65CFE4F85919491FC01808148231D
:1012800009F49ECEA9CE909180009F7DECCF9091E5
:101290008000977FE8CF94B59F7794BDE6CF94B553
:1012A0009F7DFBCF909190009F7790939000DDCF32
:1012B000909190009F7DF9CF90919000977FF5CF0E
:1012C0009091C0009F779093C000CFCF9091C000C5
:1012D0009F7DF9CF9091C200977F9093C200C5CFB8
:1012E0008095909582239323C8CE80959095A822CF
:1012F000B922B092DD01A092DC0141E049832ECFFA
:10130000E7E3F2E01382128288EE93E0A0E0B0E01F
:1013100084839583A683B78380E191E09183808362
:101320008FEF9FEF958784870895A1E21A2EAA1B5D
:10133000BB1BFD010DC0AA1FBB1FEE1FFF1FA21785
:10134000B307E407F50720F0A21BB30BE40BF50B82
:10135000661F771F881F991F1A9469F7609570950B
:10136000809590959B01AC01BD01CF010895EE0FD2
:0E137000FF1F0590F491E02D0994F894FFCF33
:10137E00FFFFFFFF00E10000000000000000000082
:10138E00BB023602DC02D1022203E002FE0200C1E1
:10139E00808100000002030405060708090A100EEA
:1013AE000F121314150D0A005052455353454400A5
:1013BE0052454C4541534544004E4F5445204F4EE7
:1013CE00004E4F5445204F4646000A3D3D3D2044B9
:1013DE00494C4C413458204445424F554E434520CC
:1013EE004445425547203D3D3D004445424F554EF4
:1013FE0043455F4D533A20005B4445424F554E43A3
:10140E00455D204B657920005B4D4944495D204B7D
:10141E0065792000202850696E200029202D3E205D
:10142E00005241573A2030780020535441424C45E7
:10143E003A20307800204C4153543A203078000046
:00000001FF
