:100000000C94D4000C94FC000C94FC000C94FC00A8
:100010000C94FC000C94FC000C94FC000C94FC0070
:100020000C94FC000C94FC000C940A040C947904CD
:100030000C94FC000C94FC000C94FC000C94FC0050
:100040000C94FC000C94FC000C94FC000C94FC0040
:100050000C94FC000C94FC000C94FC000C94C00369
:100060000C94FC000C94FC000C94FC000C94FC0020
:100070000C94FC000C94FC000C94FC000C94FC0010
:100080000C94FC000C94FC000C94FC000C94FC0000
:100090000C94FC000C94FC000C94FC000C94FC00F0
:1000A0000C94FC000C94FC000C94FC00080B000267
:1000B0000202000009040000010202000005240001
:1000C0001001052401010104240206052406000193
:1000D0000705810310004009040100020A00000026
:1000E00007050202400000070583024000000403E8
:1000F000090412010002EF02014041233780000190
:100100000102030141726475696E6F204C4C43001B
:1001100041726475696E6F204D6963726F000000F3
:100120000000250028002B002E00310000000000F8
:10013000240027002A002D003000000000002300CA
:10014000260029002C002F000404040404030405E5
:100150000202020204030202020206060606060664
:10016000040402020204040408020110408040104A
:1001700020408040800802040180402010020110CD
:100180008010204040200000000200090F00000302
:100190000401000C0000000000000000000000004E
:1001A0000000000000005A0811241FBECFEFDAE063
:1001B000DEBFCDBF11E0A0E0B1E0E2E3F1E102C0BB
:1001C00005900D92A234B107D9F721E0A2E4B1E085
:1001D00001C01D92A13BB207E1F710E0C4EDD0E0F1
:1001E00004C02197FE010E949108C33DD107C9F7C1
:1001F0000E94AB060C9497080C940000FC018091BF
:100200006001882311F13FB7F89482E08093E90000
:100210002091F200822F90E01816190614F481E064
:1002200090E0882339F0289A44E640935F0140919A
:10023000F1004083222339F02091F200211103C004
:100240002BE62093E8003FBF08958FEF9FEF0895BE
:100250002FB7F89483E08093E9009091E800892F0C
:10026000807295FF04C09091F20080E4891B2FBF3B
:1002700008958091570181110DC082E08093530150
:1002800084E080935401109256011092550181E050
:100290008093570183E591E008953FB7F8948091EA
:1002A0004F0190915001A0915101B091520126B59A
:1002B000A89B05C02F3F19F00196A11DB11D3FBF9E
:1002C000BA2FA92F982F8827BC01CD01620F711D6D
:1002D000811D911D42E0660F771F881F991F4A9567
:1002E000D1F708958F929F92AF92BF92CF92DF92F3
:1002F000EF92FF924B015C010E944D016B017C016A
:100300000E944D016C197D098E099F09683E73405A
:1003100081059105A8F321E0821A9108A108B1088E
:1003200088EEC80E83E0D81EE11CF11C81149104F4
:10033000A104B10429F7FF90EF90DF90CF90BF9018
:10034000AF909F908F900895409144015091450146
:10035000209142013091430142175307B4F4909128
:10036000E8009570E1F39091E80092FD19C0809348
:10037000F100809144019091450101968F73992776
:10038000892B19F48EEF8093E800809144019091BD
:1003900045010196909345018093440181E00895C1
:1003A00080E00895EF92FF920F931F93CF93DF9316
:1003B000F82E192FE62E042F81E0860F880F0E9459
:1003C000A40183E00E94A401CF2DD12FEC0EFD2EBD
:1003D000F11CCE15DF05B9F007FF13C0FE018491B3
:1003E0000E94A401182F80E00E94A401812321967D
:1003F0008111EFCFDF91CF911F910F91FF90EF907F
:1004000008958881EDCF81E0F5CFDF92EF92FF92E2
:100410000F931F93CF93DF93D82E8A01EB017B01BB
:10042000E40EF51ECE15DF0559F0D7FE12C0FE0111
:1004300084910E94A40121968111F4CF0FEF1FEF48
:10044000C801DF91CF911F910F91FF90EF90DF9046
:1004500008958881EECF0F931F93CF93DF931F9260
:10046000CDB7DEB782E0898342E450E06CEA70E009
:1004700080E80E9405020E943901DC0112960D916C
:100480001C910115110589F0D801ED91FC910280B4
:10049000F381E02DBE016F5F7F4FC801099597FD85
:1004A00004C0F80100851185ECCF89810F90DF91A0
:1004B000CF911F910F910895615030F02091F1007C
:1004C000FC0120830196F8CF289A84E680935F018F
:1004D00008958F929F92AF92BF92CF92DF92EF9248
:1004E000FF920F931F93CF93DF936C017B018A01DF
:1004F00080910B01882309F45CC0809160018823FE
:1005000009F457C08091480180FF05C08091E00048
:1005100082608093E000E801B12C8AEFA82E93E07E
:10052000892E2AE3922E209711F4BB20D9F10E9444
:10053000280181110AC0AA94AA20D9F161E070E0D3
:1005400080E090E00E947201EECF8C171D0611F042
:100550000CF08C2F9FB7F8948092E9002091E8006E
:1005600025FD02C09FBFDFCF282F30E0C21BD30B79
:10057000F701815020F041914093F100FACFE20E53
:10058000F31EBB2021F09092E800B12CEBCF8091BC
:10059000E80085FDE7CF9092E800BB24B394209754
:1005A00009F3F3CF5D9A84E6809347011016110694
:1005B0003CF081E090E0F6019383828310E000E05C
:1005C000C801DF91CF911F910F91FF90EF90DF90C5
:1005D000CF90BF90AF909F908F900895CF93DF936F
:1005E0001F92CDB7DEB76983DC01ED91FC910280EB
:1005F000F381E02D41E050E0BE016F5F7F4F099530
:100600000F90DF91CF91089583E08093E90080916E
:10061000F200882319F08AE38093E80008950E948D
:10062000280190E00895CF93DF931F92CDB7DEB7F6
:10063000FC018485958597FD08C02FEF3FEF358736
:1006400024870F90DF91CF910895CE0101960E94EB
:10065000FE00019719F4898190E0F3CF8FEF9FEFAF
:10066000F0CF0F931F93CF93DF931F92CDB7DEB7D9
:100670008C01FC018485958597FF0BC0CE01019606
:100680000E94FE00019771F4898190E0F80195873E
:100690008487F801848595850F90DF91CF911F9114
:1006A0000F9108958FEF9FEFF1CFFC018485958521
:1006B00097FD0BC09FB7F89482E08093E90080918A
:1006C000F2009FBF90E0019608959FB7F89482E0F2
:1006D0008093E9008091F2009FBF90E00895FC01B3
:1006E00001900020E9F73197AF01481B590BBC017D
:1006F00081E691E00C9469028F929F92AF92BF9233
:100700000F931F93CF93DF93CDB7DEB7A1970FB6AB
:10071000F894DEBF0FBECDBF19A2423008F44AE004
:100720008E010F5D1F4F842E912CB12CA12CA501A1
:1007300094010E946F08E62FB901CA01EA30F4F46F
:10074000E05DD801EE938D01232B242B252B79F727
:1007500090E080E0109719F0CD010E946F03A19600
:100760000FB6F894DEBF0FBECDBFDF91CF911F91C2
:100770000F91BF90AF909F908F900895E95CE1CF6B
:100780001F920F920FB60F9211242F933F938F93C6
:100790009F93AF93BF9380914B0190914C01A09197
:1007A0004D01B0914E0130914A0123E0230F2D37C6
:1007B00058F50196A11DB11D20934A0180934B016C
:1007C00090934C01A0934D01B0934E0180914F0145
:1007D00090915001A0915101B09152010196A11D3B
:1007E000B11D80934F0190935001A0935101B0939C
:1007F0005201BF91AF919F918F913F912F910F9097
:100800000FBE0F901F90189526E8230F0296A11D8A
:10081000B11DD2CF1F920F920FB60F9211248F935A
:100820009F938091E1009091E100937F9093E1008C
:1008300083FF0FC01092E90091E09093EB001092BB
:10084000EC0092E39093ED001092600198E0909399
:10085000F00082FF22C093E09093E9009091F200B3
:10086000992319F09AE39093E80090914701992316
:1008700041F090914701915090934701911101C02F
:100880005D9890915F01992341F090915F019150A3
:1008900090935F01911101C0289884FF18C0809146
:1008A000E2008E7E81608093E2008091E1008F7E85
:1008B0008093E100809148018E7E806180934801A1
:1008C0009F918F910F900FBE0F901F90189580FFF2
:1008D000F7CF8091E2008E7E80618093E20080916C
:1008E000E1008E7E8093E100809148018E7E8160E0
:1008F000E5CF1F920F920FB60F921124CF92DF9285
:10090000EF92FF920F931F932F933F934F935F9319
:100910006F937F938F939F93AF93BF93EF93FF93C7
:10092000CF93DF93CDB7DEB76C97DEBFCDBF10920C
:10093000E9008091E80083FF25C068E0CE0145967C
:100940000E945C0282EF8093E8008D8987FF39C0A6
:100950009091E80090FFFCCF982F907609F034C179
:100960009E894F89588D2F89F88C911131C080381C
:1009700061F5809149018093F1001092F1008EEFB2
:100980008093E8006C960FB6F894DEBF0FBECDBF23
:10099000DF91CF91FF91EF91BF91AF919F918F9197
:1009A0007F916F915F914F913F912F911F910F9187
:1009B000FF90EF90DF90CF900F900FBE0F901F90A1
:1009C00018959EEF9093E800C7CF1092F100D5CF15
:1009D000913059F48111D3CF4130510581F6809186
:1009E00049018D7F80934901CACF933049F4811129
:1009F000C6CF4130510519F6809149018260F2CF8E
:100A0000953041F48091E80080FFFCCF206820936E
:100A1000E300B5CF963009F0A9C00B8D1C8D22E004
:100A20001092E9001092450110924401F2122EC07A
:100A300010924301109242010E942B021F8299E002
:100A40009983FA8291E09E8390EA98879AEF99873A
:100A50002091440130914501275F3F4F3C832B8318
:100A60008D831092E9001092450110924401109379
:100A700043010093420149E050E0BE016F5F7F4FA8
:100A800080E00E9405020E942B0279CF109343015F
:100A9000009342010E943901DC0112960D911C91D4
:100AA0000115110509F451C1D801ED91FC910480A3
:100AB000F581E02DBE016B5E7F4FC801099500975F
:100AC00009F03EC1F80100851185EACFF3E0FF127D
:100AD0000EC08F89882309F440C0823061F440E859
:100AE0006DE080E191E00E94D201811148CF81E266
:100AF0008093EB0047CF813029F440E86BE084E03D
:100B000091E0F1CF833099F70E943901DC01129610
:100B1000ED90FC908E010F5F1F4F6801E114F1040E
:100B200079F0D701ED91FC910680F781E02DB801B5
:100B3000C7010995080F111DF701E084F184EECF7C
:100B4000D8011C92F60101900020E9F73197BF010E
:100B50006C197D0940E0C601C6CF6EEE70E0FB0166
:100B6000449150E080E80E94050209CF973009F4D3
:100B7000BECF983021F481E08093F10000CF99300E
:100B800009F0FDCE837009F0B2CFEFE1F1E081E032
:100B900031E096E32191222371F08093E9003093B4
:100BA000EB00DF0111972C912093EC009093ED0066
:100BB0008F5F873079F78EE78093EA001092EA0022
:100BC0008F8980936001DBCE8B8D9C8D1092E90024
:100BD0001092450110924401909343018093420189
:100BE000898D811192C08E899D89913A49F4813213
:100BF00009F07DCF47E050E064E071E080E0B3CFE2
:100C0000913209F074CF833269F48F89988DB0E006
:100C1000A0E08093000190930101A0930201B093A2
:100C20000301ADCE803269F48091E80082FFFCCFF1
:100C300067E084E091E00E945C028BEF8093E80023
:100C40009ECE823209F09BCE8F8980930B01EEEF0E
:100C5000FFE7859194918B3F9C4D51F1E0E0F8E0E6
:100C60008091040190910501A0910601B0910701C6
:100C7000803B9440A105B105F1F480910B0180FD0A
:100C80001AC0EE3F8AE0F80789F587E797E7918376
:100C90008083809160008093460188E19BE00FB6DD
:100CA000F894A895809360000FBE9093600067CE83
:100CB000EEEFFAE0D5CF808191818737974709F031
:100CC0005ECEA895809160008861809360008091DD
:100CD000460180936000EE3F2AE0F20789F08091A0
:100CE000FE0A9091FF0A9183808349CE8081918191
:100CF0008737980751F29093FF0A8093FE0AC5CF79
:100D00001092FF0A1092FE0A3ACE0E943901DC01CD
:100D100012960D911C910115110509F4E8CED80128
:100D2000ED91FC910190F081E02DBE016B5E7F4F53
:100D3000C8010995811123CEF80100851185EBCFFB
:100D4000181619060CF41BCED2CEF1E0FF12BECE5F
:100D500062EF70E004CF789484B5826084BD84B57E
:100D6000816084BD85B5826085BD85B5816085BDA6
:100D700080916E00816080936E001092810080915E
:100D800081008260809381008091810081608093E6
:100D9000810080918000816080938000809191002B
:100DA0008260809391008091910081608093910096
:100DB000809190008160809390008091C100846058
:100DC0008093C1008091C10082608093C1008091B6
:100DD000C10081608093C1008091C30081608093D5
:100DE000C3008091C00082608093C0008091C200E7
:100DF00081608093C20080917A00846080937A0041
:100E000080917A00826080937A0080917A0081607C
:100E100080937A0080917A00806880937A001092A3
:100E2000600110924901109248018091D7008160C1
:100E30008093D70080EA8093D80089B5806189BD0E
:100E400089B5826089BD09B400FEFDCF61E070E024
:100E500080E090E00E9472018091D8008F7C8061D8
:100E60008093D8008091E000807F8093E0008091A3
:100E7000E1008E7E8093E1008DE08093E200559A40
:100E8000209A5D9828988FEF9FEF90936E01809342
:100E90006D01559A209A5D9A289AA5E2B1E08D914C
:100EA00090E0FC01E959FE4F2491885B9E4FFC01C4
:100EB00084918823C9F090E0880F991FFC01E45DBC
:100EC000FE4F45915491FC01E25EFE4FC591D491D5
:100ED0009FB7F894FA013081822F80958323808315
:100EE000E8812E2B28839FBFF1E0A533BF07B9F619
:100EF00094EF892E99249394A12CB12C24E6422EB0
:100F0000512C612C712C30E0232E30E0332E85E300
:100F100091E00E946F032FB7F89460914B0170919C
:100F20004C0180914D0190914E012FBFA50194017C
:100F30000E946F0820FD47C05D982FB7F89460911C
:100F40004B0170914C0180914D0190914E012FBF4A
:100F5000A30192010E946F0820FD37C0289805E286
:100F600011E0C12CD12C7601F80181918F0190E024
:100F7000FC01EA57FE4F3491FC01E959FE4F2491E0
:100F8000885B9E4FFC018491D0E0C0E0882309F487
:100F900033C0332309F131503F30F0F4E32FF0E058
:100FA000EC52F84F0C94910835083908E7072D08E2
:100FB0003108EC07EC07EC073C08420846084A08F1
:100FC0005008EC0754085D9AB8CF289AC8CF909182
:100FD00080009F7790938000E82FF0E0EE0FFF1FD6
:100FE000E65CFE4FA591B491EC912E2391E080E058
:100FF00009F490E0C92FD82F4AE0C701B6010E943A
:101000007C038CE391E00E946F03BE01DD0F880B2F
:10101000990B4AE00E947C038AE391E00E946F03EF
:10102000FFEFCF1ADF0AEF0AFF0A80E1C816D104EA
:10103000E104F10409F098CF8EE391E00E946F0380
:1010400064E670E080E090E00E94720121143104B7
:1010500009F45DCF0E9400005ACF909180009F7DDF
:10106000B9CF90918000977FB5CF94B59F7794BD0D
:10107000B3CF94B59F7DFBCF909190009F779093D5
:101080009000AACF909190009F7DF9CF9091900011
:10109000977FF5CF9091C0009F779093C0009CCF31
:1010A0009091C0009F7DF9CF9091C200977F90935F
:1010B000C20092CFE1E6F1E01382128288EE93E063
:1010C000A0E0B0E084839583A683B78380E191E0BC
:1010D000918380838FEF9FEF958784870895A1E2A6
:1010E0001A2EAA1BBB1BFD010DC0AA1FBB1FEE1FA2
:1010F000FF1FA217B307E407F50720F0A21BB30BED
:10110000E40BF50B661F771F881F991F1A9469F768
:1011100060957095809590959B01AC01BD01CF01C4
:101120000895EE0FFF1F0590F491E02D0994F894B7
:02113000FFCFEF
:10113200FFFFFFFF00E100000000000000000000D0
:10114200EE0269020F03040355031303310300C1C6
:10115200808100000002030405060708090A100E38
:101162000F12131415444941473A20003A000D0A60
:0211720000007B
:00000001FF
