:100000000C94D4000C94FC000C94FC000C94FC00A8
:100010000C94FC000C94FC000C94FC000C94FC0070
:100020000C94FC000C94FC000C94D2050C9450062B
:100030000C94FC000C94FC000C94FC000C94FC0050
:100040000C94FC000C94FC000C94FC000C94FC0040
:100050000C94FC000C94FC000C94FC000C9488059F
:100060000C94FC000C94FC000C94FC000C94FC0020
:100070000C94FC000C94FC000C94FC000C94FC0010
:100080000C94FC000C94FC000C94FC000C94FC0000
:100090000C94FC000C94FC000C94FC000C94FC00F0
:1000A0000C94FC000C94FC000C94FC00080B000267
:1000B0000202000009040000010202000005240001
:1000C0001001052401010104240206052406000193
:1000D0000705810310004009040100020A00000026
:1000E00007050202400000070583024000000403E8
:1000F000090412010002EF02014041233780000190
:100100000102030141726475696E6F204C4C43001B
:1001100041726475696E6F204D6963726F000000F3
:1001200000002300260029002C002F000000000200
:1001300000090F0000030401000C00000000000093
:10014000000000000000000000000000000000258A
:100150000028002B002E00310000000000240027A2
:10016000002A002D003000040404040403040502E6
:100170000202020403020202020606060606060442
:10018000040202020404040802011040804010200E
:10019000408040800802040180402010020110804D
:1001A000102040402000820811241FBECFEFDAE06B
:1001B000DEBFCDBF11E0A0E0B1E0E0E8F7E102C0B2
:1001C00005900D92AA35B107D9F722E0AAE5B1E072
:1001D00001C01D92A434B207E1F710E0C4EDD0E0F5
:1001E00004C02197FE010E94B80BC33DD107C9F797
:1001F0000E94FE080C94BE0B0C940000CF93DF937A
:1002000090E0FC01EA57FE4F249189599E4FFC0172
:1002100084918823C1F090E0880F991FFC01E75A70
:10022000FE4FC591D491FC01E55BFE4FA591B491C1
:100230009FB7F8943881822F809583238883EC912F
:10024000E22BEC939FBFDF91CF910895FC01809149
:10025000E701882311F13FB7F89482E08093E90029
:100260002091F200822F90E01816190614F481E014
:1002700090E0882339F0289A44E64093E6014091C3
:10028000F1004083222339F02091F200211103C0B4
:100290002BE62093E8003FBF08958FEF9FEF08956E
:1002A000282F30E0F901E45DFE4F9491F901EA57FF
:1002B000FE4F849129593E4FF9012491222309F4DC
:1002C0005BC09923E9F091509F30D0F4E92FF0E022
:1002D000E459FE4F0C94B80B97019B017B018F01F1
:1002E00093018001800180019E01A401A801AC015D
:1002F000B2018001B601909180009F7790938000B9
:10030000E22FF0E0EE0FFF1FE25EFE4FA591B491E9
:10031000EC91E82381E090E089F580E008959091E8
:1003200080009F7DEBCF90918000977FE7CF94B5C1
:100330009F7794BDE5CF94B59F7DFBCF90919000C2
:100340009F7790939000DCCF909190009F7DF9CFA4
:1003500090919000977FF5CF9091C0009F779093F8
:10036000C000CECF9091C0009F7DF9CF9091C20088
:10037000977F9093C200C4CF80E090E008953FB78C
:10038000F8948091E2019091E301A091E401B09191
:10039000E50126B5A89B05C02F3F19F00196A11DC8
:1003A000B11D3FBFBA2FA92F982F8827BC01CD01BF
:1003B000620F711D811D911D42E0660F771F881F1E
:1003C000991F4A95D1F708958F929F92AF92BF924D
:1003D000CF92DF92EF92FF924B015C010E94BF012E
:1003E0006B017C010E94BF016C197D098E099F0978
:1003F000683E734081059105A8F321E0821A9108B7
:10040000A108B10888EEC80E83E0D81EE11CF11CDB
:1004100081149104A104B10429F7FF90EF90DF90BB
:10042000CF90BF90AF909F908F9008958093E900F8
:100430008091F200882319F08AE38093E800089500
:1004400040916801509169012091660130916701E6
:1004500042175307B4F49091E8009570E1F390913E
:10046000E80092FD19C08093F1008091680190919D
:10047000690101968F739927892B19F48EEF809368
:10048000E80080916801909169010196909369015B
:100490008093680181E0089580E00895EF92FF92D3
:1004A0000F931F93CF93DF93F82E192FE62E042F6F
:1004B00081E0860F880F0E94200283E00E942002C4
:1004C000CF2DD12FEC0EFD2EF11CCE15DF05B9F08E
:1004D00007FF13C0FE0184910E942002182F80E0C4
:1004E0000E942002812321968111EFCFDF91CF91CD
:1004F0001F910F91FF90EF9008958881EDCF81E0DB
:10050000F5CFDF92EF92FF920F931F93CF93DF937C
:10051000D82E8A01EB017B01E40EF51ECE15DF0516
:1005200059F0D7FE12C0FE0184910E94200221964C
:100530008111F4CF0FEF1FEFC801DF91CF911F9111
:100540000F91FF90EF90DF9008958881EECF2FB745
:10055000F89487708093E9009091E800892F807269
:1005600095FF04C09091F20080E4891B2FBF08958D
:100570007F928F929F92AF92BF92CF92DF92EF9233
:10058000FF920F931F93CF93DF93C82E8B017A01B5
:100590008091E701811110C08FEF9FEFDF91CF9124
:1005A0001F910F91FF90EF90DF90CF90BF90AF9091
:1005B0009F908F907F90089580916C0180FF05C07F
:1005C0008091E00082608093E000CE2DDF2DD12C61
:1005D0008AEFB82E8C2D8770982E8C2D8072882EE5
:1005E0008C2D8074782E9AE3A92E209719F4DD20A3
:1005F00009F452C08C2D0E94A70281110AC0BA943E
:10060000BB2051F261E070E080E090E00E94E401E4
:10061000ECCF8C171D0611F00CF08C2F9FB7F894BF
:100620009092E9002091E80025FD02C09FBFDDCF38
:10063000282F30E0C21BD30B882029F08150A0F076
:100640001092F100FBCFF801C7FC0AC0815050F0B6
:1006500041914093F100FACF44914093F1003196DB
:100660008150D0F7020F131FDD2021F0A092E80087
:10067000D12CDCCF8091E80085FD07C0A092E80076
:10068000DD24D394209791F2F3CF209779F6772049
:1006900069F2A092E800CACF5D9A84E680936B016C
:1006A000C7017CCFCF93DF9300D000D0CDB7DEB7AA
:1006B00069837A838B839C8380913B0244E050E082
:1006C000BE016F5F7F4F8F5F0E94B8020F900F9047
:1006D0000F900F90DF91CF910895615030F02091ED
:1006E000F100FC0120830196F8CF289A84E68093DC
:1006F000E601089580915E0181110DC082E0809332
:100700005A0184E080935B0110925D0110925C01BC
:1007100081E080935E018AE591E008950F931F9335
:10072000CF93DF931F92CDB7DEB782E0898342E497
:1007300050E06CEA70E080E80E9481020E947A0337
:10074000DC0112960D911C910115110589F0D8015B
:10075000ED91FC910280F381E02DBE016F5F7F4F30
:10076000C801099597FD04C0F80100851185ECCFFB
:1007700089810F90DF91CF911F910F910895CF93B1
:10078000DF93EC0180910B01882331F083E00E941C
:10079000B8021816190634F081E090E09B838A8332
:1007A00080E090E0DF91CF910895CF93DF931F9287
:1007B000CDB7DEB76983DC01ED91FC910280F38156
:1007C000E02D41E050E0BE016F5F7F4F09950F9033
:1007D000DF91CF91089583E00C94160283E00E948C
:1007E000A70290E00895CF93DF931F92CDB7DEB7B5
:1007F000FC018485958597FD08C02FEF3FEF358775
:1008000024870F90DF91CF910895CE0101960E9429
:100810002601019719F4898190E0F3CF8FEF9FEFC4
:10082000F0CF0F931F93CF93DF931F92CDB7DEB717
:100830008C01FC018485958597FF0BC0CE01019644
:100840000E942601019771F4898190E0F801958753
:100850008487F801848595850F90DF91CF911F9152
:100860000F9108958FEF9FEFF1CFFC01848595855F
:1008700097FD0BC09FB7F89482E08093E9008091C8
:10088000F2009FBF90E0019608959FB7F89482E030
:100890008093E9008091F2009FBF90E0089590E07E
:1008A00080E0089580E008950F931F93CF93DF9326
:1008B000CDB7DEB7C456D1090FB6F894DEBF0FBE70
:1008C000CDBFFC01DB019C919E5F9C939E01295F43
:1008D0003F4F8AE5D9011D928A95E9F788E089831F
:1008E0008BE08A8322E02C8391E09D839E8339E014
:1008F000398764E06A879E879F873A8B44E24B8BF7
:100900009C8BA0E0B1E0BE8BAD8B09E010E0188FAE
:100910000F8B998F3B8F6C8F2F8F98A353E059A328
:1009200087E08CA34DA39EA3B8A7AFA3A1E4B0E03A
:10093000BAA7A9A786E08BA74CA72DA79EA79FA71C
:1009400089AB4AAB2BAB2CAB2DAB3FAB48AF59AF10
:100950009AAF5BAF9CAF2DAF9EAF21963FAF219773
:1009600022964FAF229723965FAF239724962FAFFF
:10097000249725966FAF259726969FAF26972796A3
:100980009FAF279728969FAF28972A963FAF2A9721
:1009900045E02B964FAF2B972D962FAF2D9760E408
:1009A00070E02F967FAF6EAF2F9763964FAF639730
:1009B00085E264968FAF649765969FAF659766965C
:1009C0009FAF669767969FAF679768963FAF6897A8
:1009D00069964FAF69976B962FAF6B976D967FAF08
:1009E0006EAF6D97A1964FAFA197A2968FAFA297CA
:1009F000A3969FAFA397A4969FAFA497A5965FAF2A
:100A0000A59792819B839B879F5F9A8F9D8F838100
:100A10002C968FAF2C978F5F80686A968FAF6A97FE
:100A200044E650E0BE016F5F7F4F80E00E9481028C
:100A3000CC59DF4F0FB6F894DEBF0FBECDBFDF91AC
:100A4000CF911F910F910895CF92DF92EF92FF9275
:100A50000F931F93CF93DF9390918E01890F93E0B3
:100A6000980F973008F041C080938E01E090DB0131
:100A7000F090DC010EE611E0D0E0C0E0CC24CA9496
:100A8000DC2CC7010C2E02C0969587950A94E2F7DC
:100A900080FF0EC0F801808191818F3F980741F05F
:100AA00068E070E890E00E945203F801D182C082B1
:100AB00021960E5F1F4FC031D10519F760911301C8
:100AC0007091140180911501909116010E945203BA
:100AD00080913B028F5FDF91CF911F910F91FF902B
:100AE000EF90DF90CF900C941602DF91CF911F9181
:100AF0000F91FF90EF90DF90CF90089584E0E5E5AF
:100B0000F1E0DB0101900D928A95E1F784E0089510
:100B10001F920F920FB60F9211242F933F938F9332
:100B20009F93AF93BF938091DE019091DF01A091DD
:100B3000E001B091E1013091DD0123E0230F2D3779
:100B400058F50196A11DB11D2093DD018093DE01B2
:100B50009093DF01A093E001B093E1018091E20165
:100B60009091E301A091E401B091E5010196A11DEE
:100B7000B11D8093E2019093E301A093E401B0934F
:100B8000E501BF91AF919F918F913F912F910F9070
:100B90000FBE0F901F90189526E8230F0296A11DF7
:100BA000B11DD2CF1F920F920FB60F9211242F9327
:100BB0003F934F935F936F937F938F939F93AF93E5
:100BC000BF93CF93EF93FF93C091E1008091E10039
:100BD000837F8093E100C3FF0FC01092E90081E0A2
:100BE0008093EB001092EC0082E38093ED00109272
:100BF000E70188E08093F000C2FF1BC083E00E9401
:100C0000160280916B01882341F080916B01815025
:100C100080936B01811101C05D988091E60188236A
:100C200041F08091E60181508093E601811101C07D
:100C30002898C4FF23C08091E2008E7E816080935B
:100C4000E2008091E1008F7E8093E10080916C0151
:100C50008E7E806180936C01FF91EF91CF91BF9167
:100C6000AF919F918F917F916F915F914F913F9144
:100C70002F910F900FBE0F901F901895C0FFECCFD3
:100C80008091E2008E7E80618093E2008091E1009D
:100C90008E7E8093E10080916C018E7E8160DACF40
:100CA0001F920F920FB60F921124CF92DF92EF9204
:100CB000FF920F931F932F933F934F935F936F93E5
:100CC0007F938F939F93AF93BF93EF93FF93CF93B4
:100CD000DF93CDB7DEB76C97DEBFCDBF1092E900D2
:100CE0008091E80083FF25C068E0CE0145960E9410
:100CF0006D0382EF8093E8008D8987FF39C0909162
:100D0000E80090FFFCCF982F907609F034C19E89BF
:100D10004F89588D2F89F88C911131C0803861F539
:100D200080916D018093F1001092F1008EEF80931D
:100D3000E8006C960FB6F894DEBF0FBECDBFDF9112
:100D4000CF91FF91EF91BF91AF919F918F917F9143
:100D50006F915F914F913F912F911F910F91FF9054
:100D6000EF90DF90CF900F900FBE0F901F901895CF
:100D70009EEF9093E800C7CF1092F100D5CF91304D
:100D800059F48111D3CF4130510581F680916D0125
:100D90008D7F80936D01CACF933049F48111C6CF06
:100DA0004130510519F680916D018260F2CF953086
:100DB00041F48091E80080FFFCCF20682093E3009D
:100DC000B5CF963009F0A9C00B8D1C8D22E0109292
:100DD000E9001092690110926801F2122EC010927F
:100DE0006701109266010E948E031F8299E0998329
:100DF000FA8291E09E8390EA98879AEF99872091F2
:100E0000680130916901275F3F4F3C832B838D83BD
:100E10001092E90010926901109268011093670125
:100E20000093660149E050E0BE016F5F7F4F80E0B4
:100E30000E9481020E948E0379CF10936701009374
:100E400066010E947A03DC0112960D911C91011536
:100E5000110509F451C1D801ED91FC910480F5818F
:100E6000E02DBE016B5E7F4FC8010995009709F028
:100E70003EC1F80100851185EACFF3E0FF120EC0F4
:100E80008F89882309F440C0823061F440E86DE026
:100E900080E191E00E944E02811148CF81E280936F
:100EA000EB0047CF813029F440E86BE084E091E02B
:100EB000F1CF833099F70E947A03DC011296ED900E
:100EC000FC908E010F5F1F4F6801E114F10479F06F
:100ED000D701ED91FC910680F781E02DB801C701A3
:100EE0000995080F111DF701E084F184EECFD801B8
:100EF0001C92F60101900020E9F73197BF016C19AF
:100F00007D0940E0C601C6CF6EEE70E0FB01449162
:100F100050E080E80E94810209CF973009F4BECFEB
:100F2000983021F481E08093F10000CF993009F0EE
:100F3000FDCE837009F0B2CFEDE0F1E081E031E069
:100F400096E32191222371F08093E9003093EB0026
:100F5000DF0111972C912093EC009093ED008F5FAF
:100F6000873079F78EE78093EA001092EA008F8944
:100F70008093E701DBCE8B8D9C8D1092E90010925F
:100F80006901109268019093670180936601898DD1
:100F9000811192C08E899D89913A49F4813209F07C
:100FA0007DCF47E050E064E071E080E0B3CF913264
:100FB00009F074CF833269F48F89988DB0E0A0E096
:100FC0008093000190930101A0930201B09303016B
:100FD000ADCE803269F48091E80082FFFCCF67E0FB
:100FE00084E091E00E946D038BEF8093E8009ECE39
:100FF000823209F09BCE8F8980930B01EEEFFFE7E1
:10100000859194918B3F9C4D51F1E0E0F8E0809107
:10101000040190910501A0910601B0910701803B68
:101020009440A105B105F1F480910B0180FD1AC037
:10103000EE3F8AE0F80789F587E797E79183808399
:101040008091600080936A0188E19BE00FB6F8947C
:10105000A895809360000FBE9093600067CEEEEF7E
:10106000FAE0D5CF808191818737974709F05ECE2E
:10107000A8958091600088618093600080916A01EA
:1010800080936000EE3F2AE0F20789F08091FE0A2B
:101090009091FF0A9183808349CE80819181873727
:1010A000980751F29093FF0A8093FE0AC5CF1092E1
:1010B000FF0A1092FE0A3ACE0E947A03DC011296D1
:1010C0000D911C910115110509F4E8CED801ED919F
:1010D000FC910190F081E02DBE016B5E7F4FC80155
:1010E0000995811123CEF80100851185EBCF1816E3
:1010F00019060CF41BCED2CEF1E0FF12BECE62EF89
:1011000070E004CFCF93DF931092EB011092EA01CD
:1011100088EE93E0A0E0B0E08093EC019093ED01C5
:10112000A093EE01B093EF018BE391E09093E9017E
:101130008093E8018FEF9FEF9093F5018093F40186
:1011400082E080933C0280933D0282E492E090939F
:101150003F0280933E0210924102109240028DE4C1
:1011600091E0909339028093380280E880934202A4
:1011700081E8809343020E947A03FC01818190916F
:101180003C02482F490F5527551F483051059CF503
:10119000A281B381109709F528E332E033832283DB
:1011A000208120933A0280933B0280913D02820F7E
:1011B000808320913E02A22FB0913F028A2F821B92
:1011C0008917C8F481813D91C82FD0E0C45FDE4FFC
:1011D00038838F5F8183F2CFD90118962D913C918E
:1011E000199721153105C1F728E332E019963C9390
:1011F0002E931897D5CFDF91CF910895CF93DF939A
:10120000CDB7DEB729970FB6F894DEBF0FBECDBFBE
:10121000789484B5826084BD84B5816084BD85B5D1
:10122000826085BD85B5816085BD80916E008160DD
:1012300080936E0010928100809181008260809383
:101240008100809181008160809381008091800085
:1012500081608093800080919100826080939100F2
:1012600080919100816080939100809190008160D5
:10127000809390008091C10084608093C100809130
:10128000C10082608093C1008091C1008160809321
:10129000C1008091C30081608093C3008091C00031
:1012A00082608093C0008091C20081608093C20000
:1012B00080917A00846080937A0080917A008260C5
:1012C00080937A0080917A00816080937A00809187
:1012D0007A00806880937A001092E70110926D0185
:1012E00010926C018091D70081608093D70080EAD2
:1012F0008093D80089B5806189BD89B5826089BD38
:1013000009B400FEFDCF61E070E080E090E00E9453
:10131000E4018091D8008F7C80618093D800809117
:10132000E000807F8093E0008091E1008E7E8093DA
:10133000E1008DE08093E200559A209A5D9828980C
:101340000FB6F894A8958091600088618093600042
:10135000109260000FBE27E131E03B832A8307E251
:1013600011E0AA81BB818D91BB83AA830E94FE00FC
:101370004A805B8004151505A1F78EE891E0EEE642
:10138000F1E066246A94762C619271928E179F0721
:10139000C1F7559A209A5D9828985D9A289A70927C
:1013A000F5016092F40182E00E94FE0085E10E9456
:1013B000FE0082E00E945001892BB9F585E10E9470
:1013C0005001892B91F562E370E080E090E00E948B
:1013D000E40182E00E945001892B39F585E10E94E9
:1013E0005001892B11F57092F5016092F401559A24
:1013F000209A5D982898289A5D9864E670E080E0CD
:1014000090E00E94E4015D9A64E670E080E090E084
:101410000E94E40188EE91E00E943504892B61F37B
:1014200088EE91E00E94F303E7CF88E198E20FB6DF
:10143000F894A895809360000FBE90936000A895E3
:101440008FB7F8948090DE019090DF01A090E001CA
:10145000B090E1018FBF47E1E42E41E0F42E10E0AF
:1014600000E019861886D7018D917D010E945001F8
:10147000892B71F481E090E0002E02C0880F991F43
:101480000A94E2F748845984482A592A598648869A
:101490000F5F1F4F0031110531F72BE9222E21E09C
:1014A000322E3EE6E32E31E0F32E10E000E050E075
:1014B0001982402F68857985002E02C07695679540
:1014C0000A94E2F72091DB013091DC01E62FE17014
:1014D000C901002E02C0969587950A94E2F78170A3
:1014E000E81741F1D1018D919D910D90BC91A02DF6
:1014F00024013501481A590A6A0A7B0AD301C2013C
:101500004F97A105B105B0F0D1018D929D92AD929A
:10151000BC92139781E090E0002E02C0880F991FC3
:101520000A94E2F760FFA8C0822B932B9093DC0112
:101530008093DB01C090DB01D090DC01B601042E6A
:1015400002C0769567950A94E2F79B0121703327D4
:101550006090990170909A016170C301042E02C0DD
:10156000969587950A94E2F78170681709F4A5C0EB
:10157000F801E95DFE4F508180918E01BCE08B0245
:10158000C0011124850F911D97FD7BC08038910506
:1015900014F08FE790E044244394512C02C0440C93
:1015A000551C4A95E2F7232B09F46DC0282F082E0D
:1015B000000C330BF7013183208369E070E99FE76A
:1015C0000E9452036428752870929A0160929901D2
:1015D00051E0F1E0F9830F5F1F4F42E0E40EF11C90
:1015E00064E0260E311C0031110509F062CF55234D
:1015F00029F080913B028F5F0E941602C60183731F
:1016000093738333934309F089C080918F01909144
:101610009001A0919101B09192010097A105B105AF
:1016200009F051C080928F0190929001A092910197
:10163000B0929201109297014CECC422D4225CEC3F
:10164000C516D50609F087C0809193019091940149
:10165000A0919501B09196010097A105B10509F0FF
:1016600066C08092930190929401A0929501B092ED
:101670009601109298013FC0809590958223932304
:1016800055CF80E088CFD7018D919C918F3F9807EF
:1016900051F068E070E890E00E9452032FEF3FEFB6
:1016A000F701318320834094509464207520709218
:1016B0009A016092990151E08ECF232B09F48BCFD0
:1016C00031E0398388CF209197012111B5CF2401D2
:1016D0003501481A590A6A0A7B0AD301C2018C32C1
:1016E0009140A105B10508F4A7CF31E030939701EF
:1016F0008FEF0E94240549804420B1F12898809101
:101700008E01882399F15D9880E0682E80E0782E24
:10171000672809F494CE0E94000091CE10928F01A8
:1017200010929001109291011092920183CF20911A
:1017300098012111E0CF881A990AAA0ABB0A6CE223
:10174000861661E09606A104B104A8F271E07093D8
:10175000980181E0CECF10929301109294011092E3
:1017600095011092960185CF289AC9CF5D9ACCCF6A
:10177000EE0FFF1F0590F491E02D0994F894FFCF30
:10178000FFFFFFFF00E100000000000000C18081BA
:101790000000000BB07B0002030405060708090ADD
:1017A000100E0F12131415303132332C2D2E2F281A
:1017B000292A2B2425262700000000D503BF03EE8D
:1017C00003EB033504F3031104000000005204543A
:0A17D000044F047E054D4944490012
:00000001FF
